:020000040800F2
:10000000002800200D230008E1210008E521000858
:10001000E9210008ED210008F1210008000000009E
:10002000000000000000000000000000F5210008B2
:10003000F921000800000000FD210008012200084D
:1000400055230008552300085523000855230008B0
:1000500055230008552300085523000855230008A0
:1000600055230008552300080522000855230008E1
:100070005523000855230008552300085523000880
:100080005523000855230008552300085523000870
:100090005523000855230008552300085523000860
:1000A000552300080D220008552300085523000899
:1000B00055230008192200080000000055230008FD
:1000C0005523000800000000000000005523000830
:1000D0000000000025220008552300080000000051
:1000E00031220008552300085523000800000000B5
:1000F0000000000000000000000000000000000000
:0C01000000000000000000005FF808F1A3
:1001100010B5054C237833B9044B13B10448AFF341
:1001200000800123237010BDEC01002000000000BE
:10013000446D000808B5034B1BB103490348AFF3F6
:10014000008008BD00000000F0010020446D0008A0
:10015000034613F8012B002AFBD1181A0138704707
:1001600081F0004102E000BF83F0004330B54FEA68
:1001700041044FEA430594EA050F08BF90EA020FD5
:100180001FBF54EA000C55EA020C7FEA645C7FEA68
:10019000655C00F0E2804FEA5454D4EB5555B8BF8B
:1001A0006D420CDD2C4480EA020281EA030382EAFC
:1001B000000083EA010180EA020281EA0303362D8E
:1001C00088BF30BD11F0004F4FEA01314FF4801C61
:1001D0004CEA113102D0404261EB410113F0004F73
:1001E0004FEA03334CEA133302D0524263EB43032A
:1001F00094EA050F00F0A780A4F10104D5F1200EC8
:100200000DDB02FA0EFC22FA05F2801841F1000122
:1002100003FA0EF2801843FA05F359410EE0A5F1F6
:1002200020050EF1200E012A03FA0EFC28BF4CF027
:10023000020C43FA05F3C01851EBE37101F00045DD
:1002400007D54FF0000EDCF1000C7EEB00006EEBEA
:100250000101B1F5801F1BD3B1F5001F0CD3490874
:100260005FEA30004FEA3C0C04F101044FEA4452CB
:1002700012F5800F80F09A80BCF1004F08BF5FEA52
:10028000500C50F1000041EB045141EA050130BD32
:100290005FEA4C0C404141EB0101013C28BFB1F544
:1002A000801FE9D291F0000F04BF01460020B1FA8F
:1002B00081F308BF2033A3F10B03B3F120020CDA62
:1002C0000C3208DD02F1140CC2F10C0201FA0CF040
:1002D00021FA02F10CE002F11402D8BFC2F1200CA5
:1002E00001FA02F120FA0CFCDCBF41EA0C0190405B
:1002F000E41AA2BF01EB0451294330BD6FEA0404A4
:100300001F3C1CDA0C340EDC04F11404C4F120028E
:1003100020FA04F001FA02F340EA030021FA04F3A0
:1003200045EA030130BDC4F10C04C4F1200220FAF7
:1003300002F001FA04F340EA0300294630BD21FA35
:1003400004F0294630BD94F0000F83F4801306BFFB
:1003500081F480110134013D4EE77FEA645C18BFEF
:100360007FEA655C29D094EA050F08BF90EA020F86
:1003700005D054EA000C04BF1946104630BD91EA7E
:10038000030F1EBF0021002030BD5FEA545C05D181
:100390004000494128BF41F0004130BD14F58004C0
:1003A0003CBF01F5801130BD01F0004545F0FE4134
:1003B00041F470014FF0000030BD7FEA645C1ABF69
:1003C000194610467FEA655C1CBF0B46024650EAA0
:1003D000013406BF52EA033591EA030F41F40021CC
:1003E00030BD00BF90F0000F04BF0021704730B552
:1003F0004FF4806404F132044FF000054FF0000127
:1004000050E700BF90F0000F04BF0021704730B5E7
:100410004FF4806404F1320410F0004548BF4042BC
:100420004FF000013EE700BF42004FEAE2014FEA11
:1004300031014FEA02701FBF12F07F4393F07F4FEC
:1004400081F06051704732F07F4208BF704793F0EF
:100450007F4F04BF41F40021704730B54FF4607402
:1004600001F0004521F000411CE700BF50EA010205
:1004700008BF704730B54FF000050AE050EA0102AE
:1004800008BF704730B511F0004502D5404261EB1E
:1004900041014FF4806404F132045FEA915C3FF45F
:1004A000D8AE4FF003025FEADC0C18BF03325FEAFC
:1004B000DC0C18BF033202EBDC02C2F1200300FAAD
:1004C00003FC20FA02F001FA03FE40EA0E0021FAD2
:1004D00002F11444BDE600BF70B54FF0FF0C4CF4C0
:1004E000E06C1CEA11541DBF1CEA135594EA0C0F72
:1004F00095EA0C0F00F0DEF82C4481EA030621EAAD
:100500004C5123EA4C5350EA013518BF52EA0335E7
:1005100041F4801143F4801338D0A0FB02CE4FF099
:100520000005E1FB02E506F00042E0FB03E54FF0C9
:100530000006E1FB03569CF0000F18BF4EF0010EC1
:10054000A4F1FF04B6F5007F64F5407404D25FEABD
:100550004E0E6D4146EB060642EAC62141EA555170
:100560004FEAC52040EA5E504FEACE2EB4F1FD0CB2
:1005700088BFBCF5E06F1ED8BEF1004F08BF5FEA30
:10058000500E50F1000041EB045170BD06F00046E2
:1005900046EA010140EA020081EA0301B4EB5C048F
:1005A000C2BFD4EB0C0541EA045170BD41F4801187
:1005B0004FF0000E013C00F3AB8014F1360FDEBFAC
:1005C000002001F0004170BDC4F10004203C35DA88
:1005D0000C341BDC04F11404C4F1200500FA05F30B
:1005E00020FA04F001FA05F240EA020001F00042AC
:1005F00021F0004110EBD37021FA04F642EB060122
:100600005EEA430E08BF20EAD37070BDC4F10C044B
:10061000C4F1200500FA04F320FA05F001FA04F20F
:1006200040EA020001F0004110EBD37041F10001FB
:100630005EEA430E08BF20EAD37070BDC4F1200506
:1006400000FA05F24EEA020E20FA04F301FA05F26E
:1006500043EA020321FA04F001F0004121FA04F216
:1006600020EA020000EBD3705EEA430E08BF20EAE6
:10067000D37070BD94F0000F0FD101F00046400020
:1006800041EB010111F4801F08BF013CF7D041EAA2
:10069000060195F0000F18BF704703F000465200A6
:1006A00043EB030313F4801F08BF013DF7D043EA77
:1006B0000603704794EA0C0F0CEA135518BF95EA2D
:1006C0000C0F0CD050EA410618BF52EA4306D1D1B4
:1006D00081EA030101F000414FF0000070BD50EAD3
:1006E000410606BF1046194652EA430619D094EA5D
:1006F0000C0F02D150EA013613D195EA0C0F05D147
:1007000052EA03361CBF104619460AD181EA03019A
:1007100001F0004141F0FE4141F470014FF0000052
:1007200070BD41F0FE4141F4780170BD70B54FF0ED
:10073000FF0C4CF4E06C1CEA11541DBF1CEA13556D
:1007400094EA0C0F95EA0C0F00F0A7F8A4EB05044F
:1007500081EA030E52EA03354FEA013100F0888046
:100760004FEA03334FF0805545EA131343EA12630F
:100770004FEA022245EA111545EA10654FEA0026C4
:100780000EF000419D4208BF964244F1FD0404F57D
:10079000407402D25B084FEA3202B61A65EB0305D9
:1007A0005B084FEA32024FF480104FF4002CB6EB96
:1007B000020E75EB030E22BFB61A754640EA0C0016
:1007C0005B084FEA3202B6EB020E75EB030E22BF56
:1007D000B61A754640EA5C005B084FEA3202B6EB97
:1007E000020E75EB030E22BFB61A754640EA9C0056
:1007F0005B084FEA3202B6EB020E75EB030E22BF26
:10080000B61A754640EADC0055EA060E18D04FEAE3
:10081000051545EA16754FEA06164FEAC30343EA83
:1008200052734FEAC2025FEA1C1CC0D111F4801F50
:100830000BD141EA00014FF000004FF0004CB6E749
:1008400011F4801F04BF01430020B4F1FD0C88BFE8
:10085000BCF5E06F3FF6AFAEB5EB030C04BFB6EBF3
:10086000020C5FEA500C50F1000041EB045170BDE6
:100870000EF0004E4EEA113114EB5C04C2BFD4EB13
:100880000C0541EA045170BD41F480114FF0000E97
:10089000013C90E645EA060E8DE60CEA135594EA13
:1008A0000C0F08BF95EA0C0F3FF43BAF94EA0C0F16
:1008B0000AD150EA01347FF434AF95EA0C0F7FF48B
:1008C00025AF104619462CE795EA0C0F06D152EADF
:1008D00003353FF4FDAE1046194622E750EA4106C3
:1008E00018BF52EA43067FF4C5AE50EA41047FF4D4
:1008F0000DAF52EA43057FF4EBAE12E74FF0FF3C39
:1009000006E000BF4FF0010C02E000BF4FF0010C09
:100910004DF804CD4FEA410C7FEA6C5C4FEA430C82
:1009200018BF7FEA6C5C1BD001B050EA410C0CBFD1
:1009300052EA430C91EA030F02BF90EA020F002033
:10094000704710F1000F91EA030F58BF994208BF9A
:1009500090422CBFD8176FEAE37040F00100704757
:100960004FEA410C7FEA6C5C02D150EA013C07D1AE
:100970004FEA430C7FEA6C5CD6D152EA033CD3D0F9
:100980005DF8040B704700BF8446104662468C46F3
:100990001946634600E000BF01B5FFF7B7FF002826
:1009A00048BF10F1000F01BD4DF808EDFFF7F4FF4F
:1009B0000CBF012000205DF808FB00BF4DF808EDDA
:1009C000FFF7EAFF34BF012000205DF808FB00BFFD
:1009D0004DF808EDFFF7E0FF94BF012000205DF81F
:1009E00008FB00BF4DF808EDFFF7CEFF94BF0120D4
:1009F00000205DF808FB00BF4DF808EDFFF7C4FFCD
:100A000034BF012000205DF808FB00BF4FEA410C15
:100A10007FEA6C5C02D150EA013C0AD14FEA430CF8
:100A20007FEA6C5C02D152EA033C02D14FF0000035
:100A300070474FF0010070474FEA410212F5001273
:100A400015D211D56FF47873B3EB625212D94FEA15
:100A5000C12343F0004343EA505311F0004F23FAFF
:100A600002F018BF404270474FF00000704750EA54
:100A7000013005D111F0004008BF6FF00040704711
:100A80004FF00000704700BF4FEA4102B2F1E0436F
:100A900024BFB3F5001CDCF1FE5C0DD901F0004C65
:100AA0004FEAC0024CEA5070B2F1004F40EB8300B5
:100AB00008BF20F00100704711F0804F21D113F1E1
:100AC0003872BCBF01F00040704741F480114FEA1A
:100AD0005252C2F11802C2F1200C10FA0CF320FAA3
:100AE00002F018BF40F001004FEAC1234FEAD323C0
:100AF00003FA0CFC40EA0C0023FA02F34FEA43032A
:100B0000CCE77FEA625307D150EA01331EBF4FF0B2
:100B1000FE4040F44000704701F0004040F0FE40CD
:100B200040F40000704700BF80F0004002E000BFCA
:100B300081F0004142001FBF5FEA410392EA030FC8
:100B40007FEA226C7FEA236C6AD04FEA1262D2EB12
:100B50001363C1BFD218414048404140B8BF5B4217
:100B6000192B88BF704710F0004F40F4000020F0B0
:100B70007F4018BF404211F0004F41F4000121F0C6
:100B80007F4118BF494292EA030F3FD0A2F1010210
:100B900041FA03FC10EB0C00C3F1200301FA03F14E
:100BA00000F0004302D5494260EB4000B0F5000F71
:100BB00013D3B0F1807F06D340084FEA310102F130
:100BC0000102FE2A51D2B1F1004F40EBC25008BFE2
:100BD00020F0010040EA03007047490040EB0000AC
:100BE000013A28BFB0F5000FEDD2B0FA80FCACF1AD
:100BF000080CB2EB0C0200FA0CF0AABF00EBC250DA
:100C000052421843BCBFD0401843704792F0000FC7
:100C100081F4000106BF80F400000132013BB5E71A
:100C20004FEA41037FEA226C18BF7FEA236C21D090
:100C300092EA030F04D092F0000F08BF08467047F5
:100C400090EA010F1CBF0020704712F07F4F04D1C3
:100C5000400028BF40F00040704712F100723CBFD6
:100C600000F50000704700F0004343F0FE4040F400
:100C7000000070477FEA226216BF08467FEA2363BE
:100C80000146420206BF5FEA412390EA010F40F4A9
:100C9000800070474FF0000304E000BF10F00043F5
:100CA00048BF40425FEA000C08BF704743F09643DC
:100CB00001464FF000001CE050EA010208BF7047F7
:100CC0004FF000030AE000BF50EA010208BF70477E
:100CD00011F0004302D5404261EB41015FEA010C93
:100CE00002BF84460146002043F0B64308BFA3F18B
:100CF0008053A3F50003BCFA8CF2083AA3EBC2536D
:100D000010DB01FA02FC634400FA02FCC2F120028B
:100D1000BCF1004F20FA02F243EB020008BF20F0C2
:100D20000100704702F1200201FA02FCC2F1200228
:100D300050EA4C0021FA02F243EB020008BF20EA1D
:100D4000DC7070474FF0FF0C1CEAD0521EBF1CEA4B
:100D5000D15392EA0C0F93EA0C0F6FD01A4480EA39
:100D6000010C400218BF5FEA41211ED04FF0006322
:100D700043EA501043EA5111A0FB01310CF000404E
:100D8000B1F5000F3EBF490041EAD3715B0040EA74
:100D9000010062F17F02FD2A1DD8B3F1004F40EB44
:100DA000C25008BF20F00100704790F0000F0CF017
:100DB000004C08BF49024CEA502040EA51207F3ADB
:100DC000C2BFD2F1FF0340EAC250704740F40000B6
:100DD0004FF00003013A5DDC12F1190FDCBF00F0A7
:100DE00000407047C2F10002410021FA02F1C2F155
:100DF000200200FA02FC5FEA310040F1000053EAF1
:100E00004C0308BF20EADC70704792F0000F00F03E
:100E1000004C02BF400010F4000F013AF9D040EA44
:100E20000C0093F0000F01F0004C02BF490011F4D8
:100E3000000F013BF9D041EA0C018FE70CEAD153D6
:100E400092EA0C0F18BF93EA0C0F0AD030F0004C56
:100E500018BF31F0004CD8D180EA010000F000400A
:100E6000704790F0000F17BF90F0004F084691F0C8
:100E7000000F91F0004F14D092EA0C0F01D1420202
:100E80000FD193EA0C0F03D14B0218BF084608D1CB
:100E900080EA010000F0004040F0FE4040F4000015
:100EA000704740F0FE4040F4400070474FF0FF0CA8
:100EB0001CEAD0521EBF1CEAD15392EA0C0F93EAEF
:100EC0000C0F69D0A2EB030280EA010C49024FEA41
:100ED000402037D04FF0805343EA111143EA1013FA
:100EE0000CF000408B4238BF5B0042F17D024FF4B2
:100EF000000C8B4224BF5B1A40EA0C00B3EB510F8D
:100F000024BFA3EB510340EA5C00B3EB910F24BF75
:100F1000A3EB910340EA9C00B3EBD10F24BFA3EBFA
:100F2000D10340EADC001B0118BF5FEA1C1CE0D1C2
:100F3000FD2A3FF650AF8B4240EBC25008BF20F075
:100F4000010070470CF0004C4CEA50207F32C2BFC9
:100F5000D2F1FF0340EAC250704740F400004FF066
:100F60000003013A37E792F0000F00F0004C02BF97
:100F7000400010F4000F013AF9D040EA0C0093F061
:100F8000000F01F0004C02BF490011F4000F013BBB
:100F9000F9D041EA0C0195E70CEAD15392EA0C0F23
:100FA00008D142027FF47DAF93EA0C0F7FF470AF5B
:100FB000084676E793EA0C0F04D14B023FF44CAF9E
:100FC00008466EE730F0004C18BF31F0004CCAD133
:100FD00030F000427FF45CAF31F000437FF43CAF6F
:100FE0005FE700BF4FF0FF3C06E000BF4FF0010C91
:100FF00002E000BF4FF0010C4DF804CD4FEA400273
:101000004FEA41037FEA226C18BF7FEA236C11D0BC
:1010100001B052EA530C18BF90EA010F58BFB2EB6F
:10102000030088BFC81738BF6FEAE17018BF40F0EF
:10103000010070477FEA226C02D15FEA402C05D1A3
:101040007FEA236CE4D15FEA412CE1D05DF8040B28
:10105000704700BF844608466146FFE70FB5FFF7BB
:10106000C9FF002848BF10F1000F0FBD4DF808ED73
:10107000FFF7F4FF0CBF012000205DF808FB00BF64
:101080004DF808EDFFF7EAFF34BF012000205DF8BE
:1010900008FB00BF4DF808EDFFF7E0FF94BF01200B
:1010A00000205DF808FB00BF4DF808EDFFF7D2FF08
:1010B00094BF012000205DF808FB00BF4DF808ED4B
:1010C000FFF7C8FF34BF012000205DF808FB00BF18
:1010D0004FEA4002B2F1FE4F0FD34FF09E03B3EB45
:1010E00012620DD94FEA002343F0004310F0004F85
:1010F00023FA02F018BF404270474FF000007047DB
:1011000012F1610F01D1420205D110F0004008BF79
:101110006FF0004070474FF00000704730B583B06B
:1011200001F05CF900224FF480410446204801F0B0
:101130004BFB0A2001F058F91D4D04E001F04EF977
:10114000001B4F2806D84FF40041284601F036FB1B
:101150000128F3D001F042F9041B4F2C09D90024D7
:1011600001224FF48041124801F02EFB204603B0CB
:1011700030BD01A8032100F0F5FE9DF805309DF873
:1011800004201B0243EA02439DF8060013F4400FBB
:1011900040EA0300E3D1830244BF6FEA80206FEA94
:1011A0009020FFF77BFD0349FFF7CCFD0446D7E70E
:1011B000000C01400000203610B52D490446FFF711
:1011C0007DFF20B120462B49FFF75AFF88B92A48F6
:1011D0002146FFF7B7FDFFF77BFF6FF4C77300B23F
:1011E0009842B8BF184640F28F139842A8BF1846DD
:1011F00010BD00212046FFF761FFB0B12046FFF788
:1012000013F915A3D3E90023FFF766F902460B464D
:1012100013A1D1E90001FEF7A7FF13A3D3E900232F
:10122000FFF75AF9FFF730FCD2E72046FFF7FCF84A
:1012300009A3D3E90023FFF74FF909A3D3E900235A
:10124000FEF794FF08A3D3E90023FFF745F9FFF762
:101250001BFCBDE7AFF30080FCA9F1D24D62603FFB
:101260009A99999999990140B81E85EB51B8BE3F5A
:10127000000016C4000016448FC2F53D00000000B7
:101280002DE9F0471E4686B006AB03E9070030465D
:101290008549FFF713FF20B930468449FFF7F0FE78
:1012A00048B100200446824A824B106018602046F4
:1012B00006B0BDE8F087DDF80C9001F08FF87E4CA9
:1012C0002368C01AFFF7E6FC054601F087F83146AF
:1012D00020600E98FFF72CFC002104462846FFF7FB
:1012E000C5FE002840F0C580DFF8C4A10E99DAF8E9
:1012F0000000FFF71DFC3146FFF71CFC6F49074655
:101300000598FFF71FFD01463846FFF71BFD2946EC
:10131000FFF7CCFD0746DFF89C8128462146FFF702
:1013200011FDD8F80010FFF705FC0499C8F800007B
:10133000FFF708FDFFF778F855A3D3E90023FFF77F
:10134000CBF8FFF7A1FB5E490546FFF7ADFE00B9FC
:101350005B4D28465B49FFF79DFE00B9594D30466D
:10136000FFF762F802460B4630465749CDE90023A5
:10137000FFF786FEDDE9002300286BD110461946F1
:101380004FF03332514BFFF7A7F80022504BFEF7D6
:10139000EBFEFFF779FB4F4906462046FFF78EFE2E
:1013A000002840D02046FFF73FF802460B46904603
:1013B000484699464849FFF7C5FCFFF735F84246CD
:1013C0004B468046894610461946FFF785F8024687
:1013D0000B4640464946FFF77FF8FFF755FB80462E
:1013E00000212046FFF76AFE3146002845D04046DE
:1013F000FFF7A0FB06463946CAF800402846FFF72B
:1014000099FB3146FFF796FB34490446FFF74CFE43
:1014100000B9324C20463249FFF73CFE00287FF4E9
:1014200046AF2F4C43E720462E49FFF729FE48B32D
:101430002046FEF7F9FF02460B46FFF74DF802463D
:101440000B464846284990469946FFF77BFCFEF735
:10145000EBFFBCE7104619460FA3D3E90023FFF7C3
:101460003BF802460B460EA1D1E90001FEF77CFED7
:101470008FE72F46DFF838A04DE74046FFF758FBCF
:101480000646B8E748462146FFF75CFC8046A7E7DA
:10149000FCA9F1D24D62503F1904560E2DB2AD3F5A
:1014A000000000000060644000D0844500006144FA
:1014B0000C020020080200201002002000007A44E4
:1014C0000060D1C40060D14400A0A5443333B33FD1
:1014D00000003240000048420AD7A33C006051C5DA
:1014E00000605145000048C20AD7A3BC424B0268C5
:1014F0001B689A4200D070472DE9F04F08218DB04B
:101500003E4801F05BF9202104463C4801F056F9C1
:10151000042182463A4801F051F94FF480610546B2
:10152000364801F04BF94FF400618346334801F02F
:1015300045F90346102131480B9301F03FF9314A38
:1015400031498046106891F80090FEF76DFF0B9BC3
:101550000646B3FA83F00F46B4FA84F3BBFA8BF174
:101560002A4A40092A4C1278CDF80CA0069020682F
:101570005B0949095FFA89F902930992CDE9078964
:1015800005910495FEF750FF32463B46CDE9000138
:101590002049214803F00EF91F48FEF7D9FD4FF00E
:1015A000FF3382B21C491D4802F024FA1C4A1D4B2D
:1015B00012681968914206D000201B491A60087011
:1015C0000DB0BDE8F08F256818492846FFF776FD75
:1015D00078B928461649FFF753FD50B9124A1378D7
:1015E0000133DBB2092B1370EAD1002310702360A2
:1015F000E6E700232360E3E728030020000C014016
:10160000000801400C0000201E0200201D020020E6
:1016100024020020606D0008F4020020AC020020CB
:1016200014020020180200201C0200200000484381
:10163000000048C3B0F5806F08B509D0B0F5006F61
:101640001FD0102803D1164A13780133137008BD38
:1016500000F180400022042100F5823001F0B4F84E
:10166000012208210F4801F0AFF8012220210D4886
:1016700001F0AAF800230C490C4A09684B63137067
:1016800008BD00F180400122042100F5803001F006
:101690009BF801220821034801F096F80022E5E7B3
:1016A0001D020020000C0140940300201E020020B7
:1016B000134B02681B689A4200D0704710B4114C5B
:1016C00023782BB9104A136053609360D360136181
:1016D0000E4A12780A2A08D00D2A06D02F2A04D0E2
:1016E0000948591CC254CBB203E001210023084A27
:1016F0001170237001220549014810BC02F002BAA2
:10170000AC0200202C0200208C020020700300207C
:101710002002002038B5037F042B00D038BD0446DA
:10172000082102F001F8002223680D495A6208607E
:10173000FFF7B0FA01460B48FFF7B8FB03460A4D26
:1017400020210A482B6001F039F818B92B6803F101
:1017500000432B606FF0010223681A6138BD00BF9F
:10176000140200200060EA4824020020000C01401E
:101770002DE9F043002301264FF480370125022490
:101780004FF480314FF4E01291B006A8CDE90B334D
:10179000CDE90133CDE90333CDE90667CDE90D414C
:1017A0000993009308930A950F9201F01DF808B170
:1017B00072B6FEE703464FF00F084FF0020900260D
:1017C0004FF4806721466846CDE90089CDE902677C
:1017D000049301F009FA08B172B6FEE711B0BDE852
:1017E000F08300BF000000002DE9F04F002599B004
:1017F00000F0D6FDFFF7BCFFCDE91055CDE912553D
:10180000A34B2A469969022741F020019961986902
:101810004FF4827100F02000079007989C699D4862
:1018200044F004049C619E694FF4406806F004068D
:101830000896089E9E69DFF8849246F008069E612D
:101840009B69002603F008030993099B00F0BCFF85
:101850002A4644F22801904800F0B6FF04220123F2
:101860008C4810A9CDE91023CDE9126700F0AAFE3B
:101870000123894810A9CDE91089129300F0A2FE36
:101880004FF480421123844810A9CDE91023CDE9FB
:10189000126700F097FE4FF4004200237E4810A923
:1018A000CDE910234FF480784FF01109129500F024
:1018B00089FE00220323774810A9CDE91223CDE940
:1018C000108900F07FFE28220123734810A9CDE97A
:1018D0001023CDE9126700F075FE10226F4B6E48A1
:1018E00010A9CDE91023129500F06CFE2A46294676
:1018F0000A2000F09DFD0A2000F0D2FD2A4629466C
:10190000282000F095FD282000F0CAFD4FF080410E
:10191000082240F28F13624CCDE910552046CDE9E4
:101920001255CDE91455CDE90D55C4E900120C95B9
:101930000A9516950F950B95A5602561A561E36045
:1019400001F040FA08B172B6FEE74FF48058204625
:101950000CA9CDF8308001F03BFE08B172B6FEE76D
:10196000204601F0B9FA08B172B6FEE7002600275A
:1019700020460AA9CDE90A6701F0A0FF024608B196
:1019800072B6FEE74FF0600A4FF0000B1290149011
:1019900010A92046CDE910AB01F014FD08B172B6D4
:1019A000FEE70422204610A901F00CFD054608B10F
:1019B00072B6FEE7204600F0A3FB0C234FF4E131A2
:1019C0003848394A4361C0E90115C0E90355C0E907
:1019D0000655026001F0A4FF034608B172B6FEE7A7
:1019E00041F61F4040F2E732304D3149C5E901036D
:1019F0002846CDE91033CDE91233CDE90C33C5E9E2
:101A00000433AB612960EA6001F0DCF908B172B619
:101A1000FEE7284610A9CDF8408001F0D9FD08B1B5
:101A200072B6FEE728460CA9CDE90C6701F046FF27
:101A300008B172B6FEE7002340F6B7314FF6FE72EA
:101A40001C4DCDE91033CDE91233CDE90A33CDE990
:101A50000C33CDE90E33AB602B61AB61164B2846DE
:101A6000C5E90031EA6001F0ADF908B172B6FEE7F0
:101A70004FF48053284610A9109301F0A9FD08B136
:101A800072B6FEE7284601F0DBFAC8B172B6FEE78F
:101A90000010024000080140000C0140000011103D
:101AA00094030020AC0200200038014028030020ED
:101AB000002C0140400200200004004000002110E2
:101AC0000026002728460AA9CDE90A6701F0F6FE9C
:101AD000024608B172B6FEE74FF000084FF0010968
:101AE00028460CA9CDE90E67CDE90C8901F0AAFBC7
:101AF00008B172B6FEE7042228460CA901F0A2FB49
:101B000008B172B6FEE70223082228460CA90F93FB
:101B100001F098FB08B172B6FEE72846802101F07B
:101B2000FBFD054608B172B6FEE701220FF2B829A7
:101B3000D9E900894FF48041AD4800F045FE6420AA
:101B400000F052FC2A464FF48041A94800F03CFEC8
:101B50000525A84FFFF7E2FAFEF766FC42464B4622
:101B6000FEF7BAFCFEF790FF013D15F0FF05386067
:101B7000F0D1A14801F086F90122A049A04801F066
:101B8000C1FF29469F4801F0BBFA04219D4801F09E
:101B9000B7FA08219B4801F0B3FA012220219448AA
:101BA00000F012FE01220821914800F00DFE2946A6
:101BB000954801F0F1F90421934801F0EDF940F264
:101BC0008F122368914EDFF87082DFF870B2DFF871
:101BD00070A29A63DFF818923FE00821484600F0AF
:101BE000EDFD039020BB8A490B78EBB189493B6836
:101BF0000D68194628460493FEF79AFF4FF07C5172
:101C00000590FFF73DFA049B002800F0A380059A99
:101C10004FF03F411046FFF751FA049B002800F0B7
:101C200099802368039A5A637B4B1B78002B60D101
:101C30004FF48061484600F0C1FD00287CD04FF48D
:101C40008061484600F0BAFD00286CD04FF4006176
:101C5000484600F0B3FD002857D0FFF75FFAFEF7C3
:101C6000E3FB61A3D3E90023FEF736FCFEF70CFF8C
:101C70006A4938600546FFF703FA20B928466849E3
:101C8000FFF71CFA20B101220421664800F09CFDF8
:101C9000654B1B78002BA0D0002303E063498A5CCE
:101CA00000F8202C6249DAB2895C18A8104401338C
:101CB0000029F3D15E4B1B78613B162B00F28D801F
:101CC000DFE813F01D0133011701F200DA0006010D
:101CD00000018B00F200E0008B008B00D5008B0030
:101CE000CF00F2008B008B00C6008B008B008B00B6
:101CF0007A0039683068FFF75FFA00222168464BA6
:101D00004863AAF800001A7092E705462021384877
:101D100000F054FD08B123685D63012204214148AD
:101D200000F052FD56E72021484600F047FD00280C
:101D30008CD12268506389E74FF40061484600F077
:101D40003DFD00287FF47BAF01220821484600F0CA
:101D50003BFD74E7374A009507CAFFF791FA3968E7
:101D60003060FFF729FA0028AAF8000011DD4FF4CF
:101D70000061484600F022FD00283FF455AF0122E3
:101D80002021484600F020FD2368BAF900205A635C
:101D90004AE74FF48061484600F010FD00283FF408
:101DA00043AF00222021484600F00EFDBAF9003072
:101DB00022685B42536337E710A802F065F803B26C
:101DC000B3F5C87FA8F800303CDB40F28F13A8F8C9
:101DD00000302368B8F900205A630023124A1370B8
:101DE000FBE600BFAFF30080FFFFFFFFFF699840F5
:101DF000000C01400C00002028030020700300208C
:101E0000AC020020400200209403002028020020A1
:101E10001E0200203C0200201F020020000061443E
:101E200000D0844500080140200200208D020020DF
:101E30008C0200200000002088020020F002002018
:101E400090030020002BBCBF0023A8F80030C0E79F
:101E500001220821484600F0B7FC002223685A639B
:101E6000BBE701220421384800F0AEFCB5E70023AF
:101E7000226836490B70536300220821484600F05F
:101E8000A3FCAAE710A801F0FFFF03B2B3F5C87FD7
:101E9000ABF8003010DB40F28F13ABF80030236852
:101EA000BBF900209A6398E710A801F0EDFFFEF758
:101EB000F5FE274B986090E7002BBCBF0023ABF8E2
:101EC0000030ECE701222021484600F07DFC84E749
:101ED00010A801F0D9FFFEF7E1FE1E49306005466B
:101EE000FFF7ECF838B31B4B336001231A4A137029
:101EF00073E700220421144800F066FC6DE710A887
:101F000001F0C2FFFEF7CAFE0346144D4846002208
:101F100008212B6000F058FC01230C4D0022042105
:101F200009482B7000F050FC57E70022202148465A
:101F300000F04AFC51E728460949FFF7A1F80028BC
:101F4000D3D0074B3360D0E7000801401E020020C9
:101F500000000020006051451F0200203C020020CC
:101F6000006051C561B32DE9F84301F1FF385FFA14
:101F700088F8144FDFF850908044461E082500244E
:101F800000224FF48071384600F01EFC4FF40041EF
:101F9000484600F013FC0346640001224FF48071B0
:101FA0003846E4B203B1144300F00EFC6B1E13F08C
:101FB000FF05E5D106F8014F4645DFD1BDE8F883BE
:101FC000704700BF00080140000C01400E4B82B07A
:101FD0009A690E4942F001029A619A6902F001027F
:101FE0000092009ADA6942F08052DA61DB6903F00C
:101FF00080530193019B4B6823F0E06343F08063BF
:102000004B6002B0704700BF00100240000001406A
:1020100030B500240368354A8BB09342CDE90644BD
:10202000CDE908444DD0B3F1804F04D0304A9342FB
:102030000ED00BB030BD03F50433DA6942F0010273
:10204000DA61DB6903F001030293029B0BB030BD40
:10205000C02000210125274BDA6942F00202DA6133
:10206000DA6902F002020392039A9A6942F00402CA
:102070009A619A6902F004020492049A9A6942F001
:1020800008029A619B69CDE9060103F008030593F4
:1020900006A91948059B089500F094FA002301222F
:1020A00006A91648CDE90623089400F08BFA2246CB
:1020B00021461D2000F0BCF91D2000F0F1F90BB005
:1020C00030BD0C4B22469869022140F400609861B3
:1020D0009B69192003F400630193019B00F0A8F9A8
:1020E000192000F0DDF90BB030BD00BF002C01401D
:1020F000000400400010024000080140000C0140B4
:102100000023D0B5026886B0B2F1804FCDE902332A
:10211000CDE9043301D006B0D0BD03260227022446
:1021200003F1804303F504339A69084842F004023E
:102130009A619B6902A903F004030193CDE9026748
:10214000019B059400F03EFA06B0D0BD00080140A6
:1021500030B500240268204B87B09A42CDE9024492
:10216000CDE9044401D007B030BD4FF40070022126
:10217000032503F558439A6942F480429A619A69AB
:1021800002F480420092009A9A6942F004029A6135
:102190009B69CDE9020103F0040300F18040019343
:1021A00002A900F58330019B059500F00BFA00238E
:1021B0004FF4806202A90948CDE90223049400F09B
:1021C00001FA22460121252000F032F9252000F0F5
:1021D00067F907B030BD00BF00380140000801407A
:1021E000FEE700BFFEE700BFFEE700BFFEE700BF5F
:1021F000FEE700BF704700BF704700BF704700BFD9
:1022000000F0E0B8102000F0E3BA00BF014801F090
:10221000ABBA00BF28030020014801F0A5BA00BFF7
:1022200040020020014801F001BD00BFAC020020C7
:1022300008B54FF4806000F0CBFABDE808404FF4D9
:10224000006000F0C5BA00BF0120704708B501F07A
:102250001FFE162203464FF0FF301A6008BD00BF74
:1022600008B501F015FE16230360FEE770B5161ED3
:1022700007DD0C468D19AFF3008004F8010BA54271
:10228000F9D1304670BD00BF70B5161E07DD0C4693
:102290008D1914F8010BAFF30080AC42F9D1304630
:1022A00070BD00BF4FF0FF30704700BF4FF40053C8
:1022B00000204B60704700BF01207047002070472E
:1022C0000D49034610B50D4A0D4C0868121B20B18C
:1022D0000344934207D80B6010BD0A4C20460344C8
:1022E00093420C60F7D901F0D3FD0C2203464FF066
:1022F000FF301A6010BD00BF30020020002800200F
:1023000000040000F0030020704700BF0C480D4996
:102310000D4A002302E0D458C4500433C4188C4240
:10232000F9D30A4A0A4C002301E013600432A242A6
:10233000FBD3FFF7E9FF01F0B1FDFFF755FA704756
:1023400000000020EC0100209C710008EC0100203E
:10235000F0030020FEE7000038B54FF47A730D4A11
:10236000054611780C4AB3FBF1F31268B2FBF3F0A7
:1023700000F0A4F808B90F2D01D9012038BD04469A
:10238000024629464FF0FF3000F052F8034B20463A
:102390001D6038BD1400002010000020180000202F
:1023A000074A08B51368032043F01003136000F0D8
:1023B0002DF80F20FFF7D0FFFFF708FE002008BD23
:1023C00000200240034A044B11681B780B44136041
:1023D000704700BFDC03002014000020014B186888
:1023E000704700BFDC03002038B50446FFF7F6FF56
:1023F000631C054602D0044B1B781C44FFF7EEFF1C
:10240000401BA042FAD338BD140000204FF6FF0154
:10241000064A0302D06803F4E0630840034343F034
:10242000BF6343F40033D360704700BF00ED00E0AA
:10243000194B30B4DB68C3F30223C3F10705042D45
:1024400003F1040428BF0425062C19D94FF0FF34EA
:10245000033B9C4022EA04024FF0FF34AC4021EAE7
:1024600004019940002841EA02010CDB090100F156
:102470006040C9B200F5614080F8001330BC70477D
:1024800000221346E8E7054B00F00F000901C9B22E
:102490000344197630BC704700ED00E0FCEC00E02E
:1024A000002807DB012300F01F01034A8B4040098D
:1024B00042F82030704700BF00E100E00138B0F181
:1024C000807F0DD230B4F02500220721054B064C49
:1024D000586084F82350104630BC9A6019607047E9
:1024E0000120704710E000E000ED00E090F82120AE
:1024F0000346022A06D004210022816380F82020AE
:1025000001207047012170B44FF480751A681E6C69
:102510001468B14024F00E0414601468002024F004
:1025200001041460DA6B51601D8470BC704700BFF9
:1025300090F821200346022A03D0042201209A6346
:102540007047026810B511681B4821F00E01116038
:102550001168824221F00101116021D017498A429D
:102560001AD014318A421DD014318A421DD0143140
:102570008A421DD014318A420CBF4FF480124FF0B2
:1025800080724FF480700E4C596B6260188429B1D0
:1025900018468847002010BD1022F2E7084610BDFB
:1025A0000122EEE74FF48072EBE74FF48052E8E748
:1025B0004FF48032E5E700BF080002401C000240F3
:1025C000000002402DE9F04F0C6885B0002C00F0AF
:1025D0009A800026DFF8D4C133466F4FDFF8D081F0
:1025E000DFF8D0E1009004E0013334FA03F200F0A8
:1025F0008A8001229A4032EA040002EA0405F3D1FB
:102600004C68122C00F28280122C0CD8DFE804F007
:1026100086B9B60A0B0B0B0B0B0B0B0B0B0B0B0B37
:102620000BB3B0000026FF2D7ED8DDF800904FEAF6
:10263000830A0F24D9F8002004FA0AFB22EA0B02CD
:1026400006FA0AFA42EA0A02C9F80020D1F8049010
:1026500019F0805F00F08A80DCF818A023F00302F4
:102660004AF0010ACCF818A0DCF818A002F1804268
:102670000AF0010ACDF80CA002F5803203F0030A3B
:10268000DDF80CB04FEA8A0AD2F808B004FA0AF46E
:102690002BEA04000190009C4048844210D000F5D1
:1026A000806084426FD03E4884420CBF4FF0020BE2
:1026B0004FF0030B01980BFA0AFA40EA0A00019066
:1026C000019819F4803F90603A6814BF2A43AA43E6
:1026D0003A607A6819F4003F14BF2A43AA437A602B
:1026E000BA6819F4801F14BF2A43AA43BA6019F4C8
:1026F000001FFA6837D01543FD600C68013334FAC7
:1027000003F27FF476AF05B0BDE8F08F444505D005
:1027100012D9744502D02348844284D18C68D4B93C
:10272000FF2D4FF0040680D9009A4FEA830AAAF1E0
:10273000200A02F104097CE71B488442EED0DFF84E
:1027400078904C45EAD0A9F580194C457FF46BAFE1
:102750008C68002CE4D00098012C4FF008060CBFC8
:10276000026142615FE722EA0505FD600C683BE714
:10277000CE680C3657E7CE68043654E7CE68083684
:1027800051E7CE684FE74FF0010B01980BFA0AFAB8
:1027900040EA0A00019093E700040140000801406C
:1027A0000010014000003210000012100010024022
:1027B000000022100000311000002110836819422F
:1027C00014BF01200020704702B90904016170475D
:1027D000044A5169014200D1704708B55061FEF7C3
:1027E00029FF08BD00040140002800F0C3812DE945
:1027F000F04103680446DD0782B035D5A6494A6832
:1028000002F00C02042A00F0EF804A6802F00C0289
:10281000082A00F0E5806368B3F5803F10D0002BF4
:1028200000F00D81B3F5A02F00F08F819A4B1A684C
:1028300022F480321A601A6822F480221A6004E0BE
:10284000954A136843F480331360FFF7C7FD924E37
:10285000054605E0FFF7C2FD401B642800F2EB804F
:1028600033689A03F6D523689F0728D58A4A5168AA
:1028700011F00C0F00F08E80516801F00C01082956
:1028800000F084802369002B00F025810122834B16
:10289000814E1A60FFF7A2FD054605E0FFF79EFD99
:1028A000401B022800F2C78033689807F6D53368CA
:1028B000626923F0F80343EAC203336023681A070E
:1028C0001FD45D0741D5744BDA69D0007DD5002552
:1028D000734B1A68D10540F19D80E368012B00F02D
:1028E0000B81002B00F0C580052B6B4B1A6A00F0A2
:1028F000398122F001021A621A6A22F004021A6275
:10290000FFE0A369002B50D00122664B624E1A6093
:10291000FFF764FD054605E0FFF760FD401B022858
:1029200000F28980736A9B07F6D55F4B5F4A1B688C
:10293000A2FB03235B0A019300BF019B5A1E019275
:10294000002BF9D123685D07BDD4E069D0B1524DA9
:102950006A6802F00C02082A00F0E68002284FF0B4
:102960000001534A00F008811160FFF737FD2C4643
:10297000054604E0FFF732FD401B02285BD82368C0
:102980009B01F7D4002002B0BDE8F0815268D60365
:102990003FF578AF404A126895072FD52269012A82
:1029A0002CD0012002B0BDE8F0813E4A3A4E1360BF
:1029B000FFF714FD054604E0FFF710FD401B022859
:1029C00039D8736A9F07F7D4BCE7DA69012542F06A
:1029D0008052DA61DB6903F080530093009B77E754
:1029E0004A68D0037FF517AF2B4A126891037FF531
:1029F0003BAF6268002A7FF437AFD2E726496069AF
:102A00000A6822F0F80242EAC0020A601A077FF55B
:102A100058AF76E71A681F4642F480721A60FFF7D3
:102A2000DDFC06463B68DA053FF557AFFFF7D6FCFD
:102A3000801B6428F6D9032002B0BDE8F08103F1C1
:102A4000804303F504331A681E4622F480321A606C
:102A50001A6822F480221A60FFF7C0FC054604E0E1
:102A6000FFF7BCFC401B6428E5D833689B03F7D410
:102A7000F9E603F1804303F504331A6A1F4622F096
:102A800001021A621A6A41F2883822F004021A62BC
:102A9000FFF7A4FC064612E000100240000042428C
:102AA000007000408004424210000020D34D6210AC
:102AB00060004242FFF792FC801B4045BBD83B6A56
:102AC0009807F7D4002D3FF440AF444AD36923F070
:102AD0008053D36139E7424A404E1360FFF77EFCD2
:102AE000054604E0FFF77AFC401B0228A3D83368B0
:102AF0009907F7D42368E2E6384A136A43F00103E2
:102B00001362FFF76BFC41F288380646334F04E04E
:102B1000FFF764FC801B40458DD83B6A9B07F7D5C7
:102B2000002D3FF412AFD0E701283FF42CAF6B68C3
:102B3000226A03F4803191427FF433AF606A03F478
:102B40007013181A18BF01201DE703F18043A3F585
:102B50003C331A6842F480221A601A6842F48032C8
:102B60001A6072E642F004021A621A6A42F0010226
:102B70001A62C6E7012070471160FFF72FFC064676
:102B800005E0FFF72BFC801B02283FF654AF2B68B3
:102B90009901F6D4236AB3F5803F05D16A68A1682C
:102BA00022F400320A436A6001200C4D616A6A68AF
:102BB0000B4322F474120B4913436B600860FFF758
:102BC0000DFC2C46054605E0FFF708FC401B0228DB
:102BD0003FF631AF23689A01F6D5D3E600100240E4
:102BE0000000424260004242002800F0AF805D4A8F
:102BF0002DE9F0411368044603F007038B420D46AC
:102C000086B00DD2136823F007030B4313601368DB
:102C100003F007038B4203D0012006B0BDE8F0812A
:102C20002368980714D5590704D54F494A6842F4D8
:102C3000E0624A601A0704D54B494A6842F4605280
:102C40004A604949A0684A6822F0F00202434A609B
:102C5000DB0720D56268444B012A1B6878D0022A22
:102C600071D09807D8D5404E41F28838736823F068
:102C7000030313437360FFF7B1FB074604E0FFF75C
:102C8000ADFBC01B404566D87368626803F00C0357
:102C9000B3EB820FF3D1334A136803F00703AB425F
:102CA00009D9136823F007032B431360136803F05B
:102CB0000703AB42B0D12368590706D52A49E0681B
:102CC0004A6822F4E06202434A601A0707D5264A9E
:102CD0002169536823F4605343EAC103536040F20F
:102CE0000122224B06ACADF804200FCB04E90F0003
:102CF0001D494A6802F00C03082B11D01C4B1A4ADC
:102D00001C4852681C49C2F30312805C1B4AC34032
:102D100008681360FFF720FB002006B0BDE8F081D3
:102D2000C2F38343234413F8100CD30315D54A6828
:102D30000F4BC2F3404203FB00F3224412F8142C61
:102D4000B3FBF2F3DBE79E018DD465E7012070470A
:102D50009F0388D460E703205FE7094B03FB00F380
:102D6000CDE700BF00200240001002409C6D00082B
:102D700000127A00846D0008180000201000002066
:102D800000093D00044B05495B68054AC3F3022373
:102D9000CB5C1068D840704700100240946D00086A
:102DA00010000020044B05495B68054AC3F3C223A9
:102DB000CB5C1068D840704700100240946D00084A
:102DC00010000020002859D038B590F83D30044656
:102DD00003F0FF02002B38D002232268284984F830
:102DE0003D308A42136835D0B2F1804F24D0A1F52E
:102DF00094318A4220D0A569E068616823F080039D
:102E00002B431360D06291620123536184F84630F2
:102E100084F83E3084F83F3084F8403084F8413004
:102E200084F8423084F8433084F8443084F84530E4
:102E300084F83D30002038BDA16823F070030B43B7
:102E4000216923F440730B43D5E780F83C20FFF75A
:102E5000DFF8C1E7A16823F070030B43216923F475
:102E600040730B43A16923F080030B431360E368B5
:102E7000D3626368936263691363C5E70120704797
:102E8000002C014090F83D30012B16D1022203683E
:102E900080F83D20DA680D4942F001028B42DA6089
:102EA0000DD0B3F1804F0AD0094A934207D01A6877
:102EB000002042F001021A607047012070479A68B2
:102EC00002F00702062AF2D100207047002C0140D0
:102ED00000040040704700BF002859D038B590F872
:102EE0003D30044603F0FF02002B38D00223226855
:102EF000284984F83D308A42136835D0B2F1804FBA
:102F000024D0A1F594318A4220D0A569E068616897
:102F100023F080032B431360D0629162012353613D
:102F200084F8463084F83E3084F83F3084F84030EE
:102F300084F8413084F8423084F8433084F84430D7
:102F400084F8453084F83D30002038BDA16823F076
:102F500070030B43216923F440730B43D5E780F8DA
:102F60003C20FFF7B7FFC1E7A16823F070030B43D4
:102F7000216923F440730B43A16923F080030B43C1
:102F80001360E368D3626368936263691363C5E7A0
:102F900001207047002C014011BB90F83E30012BFE
:102FA00026D1022380F83E300122036801F01F0180
:102FB000186A02FA01F120EA01001862186A1D4A33
:102FC00001439342196215D0B3F1804F16D01A4ACB
:102FD000934213D01A68002042F001021A60704731
:102FE000042916D008291CD090F84130012B0CD0B0
:102FF000012070475A6C42F400425A649A6802F009
:103000000702062AE6D100207047022380F84130EB
:10301000CAE790F83F30012BEAD1022380F83F3015
:10302000C2E790F84030012BE2D1022380F8403013
:10303000BAE700BF002C014000040040704700BF09
:10304000002859D038B590F83D30044603F0FF020F
:10305000002B38D002232268284984F83D308A4268
:10306000136835D0B2F1804F24D0A1F594318A4253
:1030700020D0A569E068616823F080032B431360CA
:10308000D06291620123536184F8463084F83E3067
:1030900084F83F3084F8403084F8413084F842307E
:1030A00084F8433084F8443084F8453084F83D3067
:1030B000002038BDA16823F070030B43216923F47D
:1030C00040730B43D5E780F83C20FFF7B7FFC1E71B
:1030D000A16823F070030B43216923F440730B4371
:1030E000A16923F080030B431360E368D362636834
:1030F000936263691363C5E701207047002C0140A8
:1031000010B40446002937D190F83E3090F84220A0
:10311000D8B2D3B2012803D1012B04D010BC704720
:10312000012010BC7047002935D1022384F83E30BD
:1031300084F842302368DA6842F00202DA60012241
:10314000186A01F01F0102FA01F120EA0100186279
:10315000186A3B4A0143934219625FD0B3F1804F32
:103160005CD0A2F59432934258D01A68002042F005
:10317000010210BC1A607047042948D008290BBF0F
:1031800090F8403090F8413090F8442090F8452075
:10319000D8B2D3B2BEE7042928D0082945D00223EB
:1031A00084F8413084F845300C291DD801A353F828
:1031B00021F000BF35310008E9310008E93100088D
:1031C000E9310008F7310008E9310008E931000869
:1031D000E9310008E9310008E9310008E931000867
:1031E000E9310008033200082368A8E7022384F8C5
:1031F0003F3084F843302368DA6842F00402DA6032
:103200009DE72368DA6842F01002DA6097E790F8E9
:103210003F3090F84320D8B2D3B27BE79A6802F0EF
:103220000702062AA1D1002078E70222236884F849
:10323000402084F84420DA6842F00802DA607EE731
:10324000002C014090F83C30012B00F0B6800123A7
:10325000F0B480F83C3003686AB3042A5BD0082AD3
:103260001E6A0A6800F0848026F480564F68CC6895
:103270001E62DD691E6A25F4407545EA07251203C2
:10328000240325F4704526F4005602F40052A4B23B
:103290002C433243DC611A62DC698D6824F440649B
:1032A000DC61DA6942EA0522DA61002380F83C3009
:1032B000F0BC184670471E6ADFF804C126F001060C
:1032C0000C684D68CA6863451E629F691E6A4BD0D0
:1032D000B3F1804F48D0ACF5943C634544D047F0FF
:1032E0000105120125F0F00526F00A06D2B204F01D
:1032F0000A042A4334439A611C629C698D6824F055
:103300000C049C619A692A439A61002380F83C303E
:10331000F0BC184670471E6A4F6826F010060A680F
:10332000CC681E629D691E6A25F4407545EA072532
:103330001201240325F4704526F0A00602F0A00235
:10334000A4B22C4332439C611A629C698D6824F4B8
:1033500040649C619A6942EA05229A61002380F8E0
:103360003C30F0BC1846704727F003073D43B8E7F0
:1033700026F480764D68CC681E62DF691E6A27F0ED
:1033800003073D431202240125F0F00526F40076E0
:1033900002F40072E4B22C433243DC611A62DC694D
:1033A0008D6824F00C04DC61DA692A43DA610023B9
:1033B00080F83C30F0BC184670470220704700BFD0
:1033C000002C014090F83C30012B00F0CB80012311
:1033D000F0B480F83C300C2A31D8DFE802F0073036
:1033E00030306630303095303030360003688F68CA
:1033F0001D6A0E6825F001051D621A6A734DD3F827
:1034000004C09C6922F0020224F07304AB4242EA39
:10341000070244EA060400F0A7804D68C3F804C020
:103420009C615D631A629C690D6944F008049C61AB
:10343000996921F0040199619A692A439A610023EC
:1034400080F83C30F0BC1846704703688F681D6AEE
:103450000E6825F480551D621A6A5C4DD3F804C0CD
:10346000DC6922F4005224F4E644AB4242EA07321B
:1034700044EA062400F095804D68C3F804C0DC617E
:103480001D641A62DC690D6944F40064DC61D96969
:1034900021F48061D961DA6942EA0522DA61002308
:1034A00080F83C30F0BC1846704703688F681D6A8E
:1034B0000E6825F010051D621A6A444DD3F804C049
:1034C0009C6922F0200224F4E644AB4242EA07124F
:1034D00044EA062456D04D68C3F804C09C619D633D
:1034E0001A629C690D6944F400649C61996921F435
:1034F000806199619A6942EA05229A61002380F805
:103500003C30F0BC1846704703688F681D6A0E682F
:1035100025F480751D621A6A2C4DD3F804C0DC694D
:1035200022F4007224F07304AB4242EA072244EA18
:1035300006043CD04D68C3F804C0DC61DD631A6248
:10354000DC690D6944F00804DC61D96921F00401EB
:10355000D961DA692A43DA61002380F83C30F0BC93
:103560001846704702207047CF6822F008022CF4FA
:10357000407C3A43D1E90556354322F0040245EA3E
:103580000C0C4AE7CE6822F080022CF4406C42EA30
:103590000612D1E905753D4322F040024CEA850C44
:1035A00099E74D692CF4804C4CEA851C64E7CE68A1
:1035B00022F400622CF4405C42EA0622D1E905754F
:1035C0003D4322F480624CEA051CB3E7002C014025
:1035D00090F83C30012B74D0F0B40223012402682F
:1035E00080F83C4080F83D3094680B6824F47F44B8
:1035F00024F07704602B946065D031D8402B48D0FC
:1036000021D9502B16D1156A166A4C6826F001068E
:10361000CF681662936925F00A0123F0F00343EAAC
:103620000713214393611162936823F0700343F001
:10363000570393600023012280F83C3080F83D203E
:10364000F0BC18467047202B02D01ED9302BF1D188
:10365000916821F070010B4343F007039360E9E7A1
:10366000702B49D0B3F5005FE4D1D1E90153CC68A8
:1036700091682B4343EA042321F47F410B43936079
:10368000936843F480439360D4E733F01001D1D1C1
:10369000DEE7156A166A4C6826F00106CF681662E6
:1036A000936925F00A0123F0F00343EA071321434D
:1036B00093611162936823F0700343F047039360B2
:1036C000B8E702207047146A4D6824F01004CE68F1
:1036D00014629169136A21F4704123F0A00343EA54
:1036E000051341EA063191611362936823F0700378
:1036F00043F0670393609DE7CC68D1E9015391687B
:103700002B4343EA042321F47F410B4393609368E6
:1037100043F0770393608DE702680020536823F03D
:1037200080030B43536070470C2908D8DFE801F091
:103730000C0707070F0707071207070709000020F4
:1037400070470368186C70470368586B70470368CC
:10375000986B70470368D86B704700BF704700BF15
:10376000704700BF704700BF036810B51A69044670
:10377000910702D5DA6892075FD41A69500702D51B
:10378000DA68510746D41A69120702D5DA681007B9
:103790002ED41A69D20602D5DA68D00618D41A696E
:1037A000D10702D5DA68D2075DD41A69100602D5AE
:1037B000DA6811065FD41A69520602D5DA68500633
:1037C00061D41A69910602D5DA68920643D410BD15
:1037D0006FF01001082219612277DB69204613F48B
:1037E000407F64D0FDF796FF002223682277D6E75A
:1037F0006FF00801042219612277DB6920469907DE
:1038000052D1FFF7ABFF2046FFF7AAFF0022236843
:103810002277BEE76FF004010222196122779B69CB
:10382000204613F4407F3CD1FFF798FF2046FFF776
:1038300097FF002223682277A5E76FF0020101229B
:10384000196102779B699B0725D0FDF763FF002272
:103850002368227791E76FF020022046BDE81040F0
:103860001A6100F059B86FF0010220461A61FDF7A5
:103870003DFE236899E76FF0800220461A6100F050
:103880004DF8236897E76FF0400220461A61FFF772
:1038900069FF236895E7FFF761FF2046FFF760FFA8
:1038A000D5E7FDF737FFC4E7FDF734FFAEE7FFF7D5
:1038B00055FF2046FFF754FF96E700BF90F83C30D5
:1038C000012B22D00222036830B480F83D205A68D0
:1038D0000C680F4D22F070022243AB429C685A6084
:1038E00005D0B3F1804F02D00A4A934204D14A680E
:1038F00024F0800414439C600023012280F83C30B3
:1039000080F83D2030BC184670470220704700BF49
:10391000002C014000040040704700BF704700BF0A
:10392000002861D070B590F83D30044603F0FF02E6
:10393000002B51D02422236884F83D20DA68E06807
:1039400022F40052DA601969A26821F4405101435F
:103950001961D968D4E9045021F4B0512A4321F007
:103960000C0102430A43DA605A69A0691F4922F434
:10397000407202438B425A6133D0FFF703FA636807
:1039800000EB800000EB80009B00B0FBF3F36422AF
:10399000002620251648A0FB03C1490902FB11336C
:1039A0001B013233A0FB03230901226801EB5313EF
:1039B00093601369304623F490431361536923F0F5
:1039C0002A035361D36843F40053D360266484F818
:1039D0003D5084F83E5070BD80F83C20FEF7B8FBA7
:1039E000A8E7FFF7DFF9CAE7012070470038014078
:1039F0001F85EB512DE9F843044690F83D0020283F
:103A000068D18846002940D01746002A3DD01D467F
:103A100094F83C30012B5DD0212301224FF00009A6
:103A200084F83C20C4F8409084F83D30FEF7D6FC82
:103A3000A3680646B3F5805FA784E7844DD00022D3
:103A4000E38C84F83C209BB2002B58D02268691C80
:103A50001ED113681B06FCD5B8F1000F35D018F83D
:103A6000013B5360E38C013B9BB2E384E38C9BB24C
:103A7000002BECD1681C36D113685906FCD52023E5
:103A800084F83D300020BDE8F8830120BDE8F883CC
:103A900013681F06E0D42DB1FEF7A0FC801B854201
:103AA0002268D4D220210025D368032023F4D073C8
:103AB000D360536923F00103536184F83D1084F807
:103AC0003C5084F83E10BDE8F88339F8023BC3F35C
:103AD0000803C6E70220BDE8F8832369002BAED1B6
:103AE000C1469846ABE713685B06C8D4002DD9D011
:103AF000FEF774FC801B85422268BBD2D2E72268A5
:103B0000B8E700BF90F83E30202B23D101B3FAB1C3
:103B100090F83C30012B1DD030B4002322250468DE
:103B2000036380F83C30C285036480F83E50E5684A
:103B3000828545F480758162E5606269184642F0CD
:103B400001026261E36843F02003E36030BC704728
:103B50000120704702207047704700BF704700BFC8
:103B600008B50023406AC385C384FFF7F7FF08BD8B
:103B7000704700BF8368B3F5805F3BD0826A002B3B
:103B80002FD003685B6803F07F031370836A0133EF
:103B90008362C38D013B9BB2C3854BBB10B5202410
:103BA000026882B0D16821F02001D160D16821F48F
:103BB0008071D160516921F00101516180F83E406E
:103BC000016B012921D10363D16821F01001D1607B
:103BD0001168C90623D4818DFFF7CAFF002002B007
:103BE00010BD0369002BCCD103685B681370CDE76F
:103BF0000020704703696BB90268836A5268C2F398
:103C0000080223F8022B8362C3E7FDF751FD002071
:103C100002B010BD0368826A5B681370B6E7019357
:103C20001368019353680193019BD4E770B503684F
:103C300004461A6882B01607D9685D694ED19606A7
:103C400002D58D0600F19080206B01280BD016065E
:103C500002D50D0600F19280500602D54A0600F109
:103C6000AB8002B070BDD506F1D5C806EFD50021F6
:103C700001911A6801925A680192019A5A6912F0E8
:103C8000400200F0D280A06B0268526892B2002A13
:103C9000E7D0A58D9542E4D98669E285202E16D01D
:103CA0002025DA6822F48072DA605A6922F0010273
:103CB0005A615A6922F040025A6184F83E502163E9
:103CC000DA6822F01002DA60FEF710FCA58DE18DB3
:103CD0002046691A89B2FFF74BFFC2E705F00105DC
:103CE00001F490702843AFD0D00705D5CE0503D599
:103CF000206C40F00100206450072CD52DB1206CC1
:103D0000960740F00200206429D4160707D501F079
:103D10002000284303D0206C40F008002064206C71
:103D200000289ED0900609D58A0607D594F83E2033
:103D3000222A03D12046FFF71DFF23685A69256C0C
:103D400002F0400205F00805154340D12046FFF778
:103D500005FF256485E79007D7D5002DD5D0206CC9
:103D600040F004002064D0E790F83E30222B7FF42E
:103D700078AF02B0BDE87040FFF7FCBE94F83D207C
:103D8000212A7FF46EAFA268B2F5805F6ED0226AFE
:103D9000511C216212785A60E28C013A92B2E2849C
:103DA000002A7FF45EAFDA6822F08002DA60DA6817
:103DB00042F04002DA6054E72021DA68204622F01F
:103DC0004002DA6084F83D10FFF7C6FE49E7DA6882
:103DD00022F49072DA605A6922F001025A61226B71
:103DE000012A03D1DA6822F01002DA6000222021D1
:103DF00084F83E1022635A69560612D55A69A06BA0
:103E000022F040025A6160B11E4B4363FEF790FB03
:103E100000283FF426AFA06B436B02B0BDE87040B2
:103E200018472046FFF79AFE1BE7E08DE18D80B230
:103E300089B200293FF415AFA18D081A81B200297B
:103E40003FF40FAF2025D86820F49070D8605869EF
:103E500020F00100586184F83E502263DA68204661
:103E600022F01002DA60FFF783FEFAE62269002AE8
:103E70008DD1226A32F8021BC1F308015960226217
:103E80008AE700BF613B00080A22002100F038BD2C
:103E9000014B1868704700BF1C00002070B5002659
:103EA0000C4D0D4C641BA410A64209D102F04AFF30
:103EB00000260A4D0A4C641BA410A64205D170BD11
:103EC00055F8043B98470136EEE755F8043B984710
:103ED0000136F2E7947100089471000894710008AB
:103EE0009871000803460244934200D1704703F8DA
:103EF000011BF9E7002B2DE9F0471F46BBBF03F17B
:103F000000431F4600232D2388B01446129A109DAB
:103F10001370149BDDF84CA023F02008B8F1460F75
:103F200005D0B8F1450F00D10135022300E003238D
:103F300007AA049206AACDE902A2CDE900352246DD
:103F40003B4600F075FDB8F1470F064602D1119BC4
:103F5000DB0722D5B8F1460F06EB050910D13378FF
:103F6000302B0AD10022002320463946FCF71CFDE5
:103F700018B9C5F10105CAF80050DAF800309944C3
:103F80000022002320463946FCF70EFD08B1CDF88B
:103F90001C903022079B4B4507D33046079B159A50
:103FA0009B1B136008B0BDE8F087591C07911A707D
:103FB000F0E70346F7B5002903F8022BB6BF2D2220
:103FC0002B224942092942702BDD0DF10704A4463A
:103FD0000A2791FBF7F60A46A64607FB1615632A41
:103FE00005F13005314604F1FF340EF8015CF0DCD8
:103FF0003031AEF1020504F8011C2946441C61452C
:104000000AD30DF10902A2EB0E02654588BF00221A
:104010001344181A03B0F0BD11F8012B04F8012F56
:10402000EDE7302330318370C170031DF1E70000EC
:104030002DE9F04F91B00C46DDF8688016461F461A
:10404000054601F0E3FA036818460993FCF780F887
:1040500000230E93D8F800300A90073323F00703AB
:1040600003F1080294F81890D4F800B0C8F80020C2
:10407000D3E90023C4E91223D4E9128A2AF00043C9
:104080000B934FF0FF3240469C4B0B99FCF7BEFC64
:1040900070BB4FF0FF324046984B0B99FCF798FCF1
:1040A00030BB0022002340465146FCF787FC10B18C
:1040B0002D2384F84330924B9248B9F1470F94BFB7
:1040C0009846804603234FF0000A23612BF0040337
:1040D000236033462146284600970FAA00F0D4F902
:1040E000013040F090804FF0FF3011B0BDE8F08F0C
:1040F0004246534640465146FCF788FC48B1BAF167
:10410000000FB8BF2D238048B8BF84F843307F4BE1
:10411000D3E7636809F0DF015A1C42D106236360CC
:10412000002206920EAACDE904920DAA4BF48063F8
:1041300003920DF13302CDE90132236063684246F8
:104140000093284653460B91FFF7D4FE0B99804607
:1041500047290D9908D1C81C02DB6368994240DDEC
:10416000A9F102095FFA89F9B9F1650F1FD84A462A
:10417000013904F150000D91FFF71BFF0E9A8246A2
:104180001318012A236102DC2268D20701D501330A
:1041900023619DF83330002B9BD02D2384F84330CE
:1041A00097E74729BCD1002BBAD10123B7E7B9F172
:1041B000660F18D1002963680BDD216113B92268ED
:1041C000D00702D501330B4423614FF0000AA165EB
:1041D000DFE713B92268D20701D50233F4E70123E0
:1041E000F2E74FF067090E9B994205DB23682161D6
:1041F000D807EAD54B1CE7E70029CCBF0122C1F163
:1042000002021344E0E723685A0507D423694246B3
:1042100031462846B84701302BD164E7B9F1650F24
:1042200040F2DD80D4E9120100220023FCF7BCFB40
:10423000002833D0012331462846354AB84701309B
:104240003FF451AFDDE90D239A4202DB2368D80722
:104250000FD5DDE9092331462846B84701303FF440
:1042600042AF4FF0000804F11A090E9B013B434591
:1042700009DC23689B0700F10281E0680F9B9842EC
:10428000B8BF184631E701234A4631462846B847A9
:1042900001303FF428AF08F10108E6E70D9B002B41
:1042A00038DC012331462846194AB84701303FF42B
:1042B0001AAFDDE90D23134302D12368D907D8D5FE
:1042C000DDE9092331462846B84701303FF40BAFFA
:1042D0004FF0000904F11A0A0D9B5B424B4501DCCB
:1042E0000E9B94E70123524631462846B8470130D9
:1042F0003FF4F9AE09F10109EEE700BFFFFFEF7FE0
:10430000B46D0008B86D0008C06D0008BC6D0008F1
:10431000C46D00080E9AA36D9A42A8BF1A46002ADF
:10432000914637DC4FF0000B29EAE97904F11A02D3
:10433000D4F858A0AAEB09035B4533DCDDE90D2373
:104340009A423BDB2368DA0738D40E9A0D99A2EB28
:104350000A03A2EB01099945A8BF9946B9F1000FDC
:1043600034DC4FF0000829EAE97904F11A0ADDE9A2
:104370000D239B1AA3EB090343457FF77AAF012373
:10438000524631462846B84701303FF4ACAE08F1FA
:104390000108ECE71346314642462846B84701304B
:1043A000C0D1A0E60123314628460B92B847013020
:1043B0003FF499AE0B9A0BF1010BB9E73146DDE9F9
:1043C00009232846B8470130BFD18CE64B46314619
:1043D000284608EB0A02B8470130C2D183E60E9A9C
:1043E000012A01DCDB0737D5012342463146284646
:1043F000B84701303FF477AEDDE90923314628465E
:10440000B84701303FF46FAED4E912010022002317
:10441000FCF7CAFAD8B90E9B08F10102013B3146FC
:104420002846B84701300ED15DE601234A463146A1
:104430002846B84701303FF456AE08F101080E9BFC
:10444000013B4345F1DC534604F15002E0E64FF0F6
:10445000000804F11A09F2E701234246DFE70123CD
:104460004A4631462846B84701303FF43CAE08F191
:104470000108E3680F995B1A4345F0DCFDE64FF055
:10448000000804F11909F4E72DE9F04716469946AA
:104490008A680B6907469342B8BF1346336091F8A8
:1044A00043200C46DDF820800AB1013333602368D5
:1044B000990642BF336802333360256815F006055C
:1044C00006D104F1190AE36832689B1AAB4228DC72
:1044D00094F84320131E226818BF012392062DD49E
:1044E0004946384604F14302C047013020D02368D2
:1044F000E56803F00603042B18BF002532684FF06F
:104500000006A36808BFAD1A226908BF25EAE57551
:104510009342C4BF9B1AED181A34B5421AD1002039
:1045200008E00123524649463846C047013003D1CE
:104530004FF0FF30BDE8F0870135C4E73020E118C7
:1045400081F843005A1C94F845102244023382F843
:104550004310C5E70123224649463846C04701308B
:10456000E6D00136D9E700002DE9FF470C46277E4B
:104570009146782F80469A460C9904F1430207D859
:10458000622F0AD8002F00F0D980582F00F0A480A5
:1045900004F1420684F842703AE0A7F16303152B58
:1045A000F6D801A050F823F001460008154600088F
:1045B0009145000891450008914500089145000883
:1045C00015460008914500089145000891450008EE
:1045D00091450008234700084546000805470008A4
:1045E000914500089145000845470008914500089D
:1045F0004546000891450008914500080D47000810
:104600000B6804F142061A1D1B680A6084F84230E8
:104610000123A4E0256808682E0600F104030AD5EA
:1046200005680B60002D03DA2D236D4284F84330BA
:104630000A235E4819E015F0400F05680B6018BFAB
:104640002DB2EFE70B682568181D0860280601D514
:104650001D6802E06906FBD51D886F2F0CBF08237B
:104660000A235248002184F843106668002EA8BF30
:104670002168A660A4BF21F0040121600DB9002EBD
:104680004DD01646B5FBF3F103FB1157C75D06F895
:10469000017D2F46BB420D46F4D9082B0BD1236870
:1046A000DF0708D5236961689942DEBF302306F829
:1046B000013C06F1FF36921B22614B4621464046E3
:1046C000CDF800A003AAFFF7DFFE01304CD14FF078
:1046D000FF3004B0BDE8F087344884F845700E68B8
:1046E000236856F8045B1F060E6014D5D90744BF33
:1046F00043F0200323601DB9236823F020032360C7
:104700001023AFE7236843F0200323607823284871
:1047100084F84530E3E75E0648BFADB2E6E71646EB
:10472000BBE70B6826681D1D60690D6035061B68B8
:1047300001D5186002E07106FBD5188000231646EB
:104740002361BAE70B681A1D0A601E680021304613
:10475000626800F067FF08B1801B606063682361D6
:10476000002384F84330A8E732464946404623698F
:10477000D0470130ABD023689B0713D4E068039B7C
:104780009842B8BF1846A4E701233246494640463E
:10479000D04701309BD00135E36803995B1AAB42E7
:1047A000F2DCEBE7002504F11906F5E7C66D000819
:1047B000D76D00080EB46FF0004100B59CB01DAB82
:1047C00002900690079104910848094953F8042B78
:1047D0000591006802A9019301F0D2FB0022029B1F
:1047E0001A701CB05DF804EB03B070471C00002089
:1047F0000802FFFF012B2DE9F047864601D0242B4C
:1048000006D9FFF745FB162303600020BDE8F087BB
:104810008C463A4E60461CF8014BA55D15F0080524
:10482000F8D12D2C33D14FF001089CF8004000F155
:10483000020C002B5DD0102B0CD1302C0AD19CF82F
:10484000000000F0DF0058284ED110239CF80140F2
:104850000CF1020C002508F10047013FB7FBF3F90A
:10486000284603FB197AA4F13006092E18D83446DD
:10487000A34224DD002D1FDB81451DD301D1A245BC
:104880001ADB012500FB03401CF8014BEBE72B2C46
:1048900008BF9CF80040A84608BF00F1020CC8E71A
:1048A000A4F14106192E01D8373CE1E7A4F16106D5
:1048B000192E04D8573CDBE74FF0FF35E4E7002D15
:1048C00008DA22233846CEF80030002A9ED00CF1B8
:1048D000FF3107E0B8F1000F00D04042002A95D028
:1048E000002DF4D1116091E73024002BB2D10823C0
:1048F000B0E7302CA3D00A23ACE700BFE96D000875
:1049000013460A46014602480068FFF773BF00BF1E
:104910001C0000202DE9F74F03690C690746A342EC
:10492000C0F28380013C00F1140501F1140805EB8D
:104930008403019358F8243055F8242001339A4217
:10494000B2FBF3F64FEA840B08EB840932D34FF045
:10495000000E4046AC46F24650F8042B93B206FBDC
:1049600003E3120C4FEA134E06FB02E29BB2AAEBE2
:104970000303DCF800A04FEA124E1FFA8AFA5344F0
:104980001FFA82FADCF800208145CAEB124202EBE2
:1049900023429BB243EA02434FEA224A4CF8043BCB
:1049A000DAD255F80B302BB9019B043B9D421A46D5
:1049B0002FD33C61384601F0CBF8002825DB284690
:1049C0004FF0000C013658F8041BD0F800E08BB211
:1049D000ACEB03031FFA8EF213440A0CC2EB1E4227
:1049E00002EB23429BB243EA0243C1454FEA224C09
:1049F00040F8043BE7D255F8242005EB840322B9A4
:104A0000043B9D421A460AD33C61304603B0BDE8E0
:104A1000F08F1268043B002ACBD1013CC6E7126834
:104A2000043B002AF0D1013CEBE70020EEE7000058
:104A30002DE9F04F16461F46446A99B00546CDE968
:104A40000467DDF8948074B9102000F0E3FD02469D
:104A5000686220B9EA21AE4BAE4801F0A1FBC0E983
:104A600001440460C4606B6A196851B15A6801233B
:104A700093404A608B60284600F030FE00226B6A4B
:104A80001A603B1EAFBF0023012223F000430593B1
:104A9000A8BFC8F80030DDF814909F4BB8BFC8F825
:104AA000002033EA090319D142F20F73249A1360EC
:104AB000C9F31303334300F08085269B53B9974B0A
:104AC00022E0974B08930833269A1360089819B090
:104AD000BDE8F08F914B08930333F5E7DDE904342B
:104AE000CDE90C34DDE90C0100220023FBF75CFF6B
:104AF000804658B10123249A1360269B002B00F0B6
:104B0000598588481860431E0893DFE716AB019368
:104B100017AB00932846DDE90C2301F0C5F8C9F373
:104B20000A548246002C7ED0DDE90C010D9BA4F2D4
:104B3000FF34C3F3130343F07F5141F44011CDF828
:104B40004C800022784BFBF70FFB6BA3D3E90023CB
:104B5000FBF7C2FC6AA3D3E90023FBF707FB064679
:104B600020460F46FBF74EFC67A3D3E90023FBF773
:104B7000B3FC02460B4630463946FBF7F7FA0646C9
:104B80000F46FBF759FF0022814600233046394685
:104B9000FBF714FF48B14846FBF734FC32463B466E
:104BA000FBF702FF08B909F1FF39B9F1160F57D821
:104BB000DDE90C015D4B03EBC903D3E90023FBF7EF
:104BC000FDFE00284ED0002309F1FF390F93169BFC
:104BD0001C1B631E099349BFC4F101030023069304
:104BE000002354BF06930993B9F1000F3CDB099BE6
:104BF000CDF838904B44099300230A93229B092B4C
:104C00006CD8052BC4BF043B2293229BC8BF002451
:104C1000A3F10203D8BF0124032B00F28B80DFE84D
:104C200003F02D4F4D5BDDE916431C4404F2324383
:104C3000202BC3BFC3F1400304F2124009FA03F36F
:104C4000C3F12003C6BF26FA00F0184306FA03F0AA
:104C5000FBF7C8FB0123A1F1F871013C139370E746
:104C60000123B3E70F90B2E7069BA3EB090306937A
:104C7000C9F100030A9300230E93BFE700230B93AF
:104C8000239B002B59DC4FF0010B5B46CDF808B09D
:104C9000CDF88CB00022686A4260042202F114064A
:104CA0009E4241684FD9284600F0D8FC0890002861
:104CB0004DD102464FF4D5711D4BCDE60123DEE701
:104CC00000230B93239B09EB030B0BF10103012B37
:104CD0000293B8BF0123DDE70123F2E7012400239B
:104CE0000B9422934FF0FF3B00221223CDF808B023
:104CF0002392CFE7AFF3008061436F63A787D23F72
:104D0000B3C8608B288AC63FFB799F501344D33FBA
:104D1000F66E00080D6F00080000F07FF26E0008CC
:104D2000E96E0008C56D00080000F83F0870000833
:104D30006C6F000801230B93D4E7DDF88CB05B4661
:104D4000CDF808B0A6E7013141605200A6E76B6AD2
:104D5000089A1A60029B0E2B00F2A880002C00F02B
:104D6000A580B9F1000F34DD9A4A09F00F0302EB78
:104D7000C30319F4807FD3E90034CDE910344FEA3E
:104D8000291416D0DDE90C01934B0327D3E908233E
:104D9000FBF7CCFCCDE9040104F00F048E4E54B9AE
:104DA000DDE91023DDE90401FBF7C0FCCDE90401D6
:104DB00029E00227F2E7E10708D5DDE91001D6E98D
:104DC0000023FBF789FBCDE9100101376410083699
:104DD000E5E700F0A580DDE90C01C9F100047D4B99
:104DE00004F00F0203EBC203D3E90023FBF774FBCB
:104DF00002270023CDE90401774E2411002C40F056
:104E00008480002BD2D10F9B002B00F08B80DDE93A
:104E10000434CDE91034DDE9100100226F4BFBF7BB
:104E2000CDFD00287ED0029B002B7BD0BBF1000F74
:104E300038DDDDE910010022694BFBF74DFB5C46D4
:104E4000CDE9040109F1FF3801373846FBF7DAFAFA
:104E5000DDE90423FBF740FB0022624BFBF786F9F8
:104E6000A1F15076CDE910011196002C5DD1DDE95C
:104E7000040100225C4BFBF777F902460B46CDE9B3
:104E800004233346109AFBF7B7FD002840F09E82BA
:104E9000DDE90401109A06F10043FBF78FFD0028BD
:104EA00040F09282DDE90C34CDE90434179B002BED
:104EB000C0F25381B9F10E0F00F34F81454B03EB64
:104EC000C903D3E90034CDE90634239B002B80F2DB
:104ED000DB80029B002B00F3D78040F07482DDE979
:104EE00006010022404BFBF7F7FADDE90423FBF74C
:104EF00079FD029C2646002840F04A823123089F13
:104F000009F1010907F8013B46E2E20705D5D6E9B8
:104F10000023FBF7E1FA01230137641008366DE73F
:104F2000022770E7C846029C8FE70899294B214465
:104F300012910B9903EBC403DDE9106753E90223D7
:104F4000002955D000202949FBF7F0FB3B463246AB
:104F5000FBF70AF9CDE91001089FDDE90401FBF731
:104F60006BFD0446FBF74EFA02460B46DDE90401F1
:104F7000FBF7FAF802460B463034CDE90423DDE9AD
:104F8000102307F8014BFBF719FD002874D1DDE968
:104F9000042300201149FBF7E7F8DDE91023FBF7B4
:104FA0000DFD002840F0B680129B9F423FF47AAF7F
:104FB000DDE9100100220A4BFBF78EFA0022CDE951
:104FC0001001DDE90401064BFBF786FACDE9040187
:104FD000C3E700BF08700008E06F00080000F03F62
:104FE0000000244000001C40000014400000E03F8E
:104FF00030463946FBF770FA129BCDE91001089C48
:105000001493DDE90401FBF717FD1590FBF7FAF99E
:1050100002460B46DDE90401FBF7A6F8159B0646A0
:10502000303304F8013B129B0F469C424FF00002C4
:1050300024D1DDE91001B34BFBF798F802460B468B
:1050400030463946FBF7D8FC002862D1DDE9102351
:105050000020AC49FBF788F802460B46304639463B
:10506000FBF7ACFC00283FF41DAF149F7B1E14938C
:1050700017F8013C302BF8D0C1463AE0A24BFBF7C1
:105080002BFACDE90401BCE7089FDDE90623DDE941
:105090000401FBF74BFBFBF7CFFC0446FBF7B2F92F
:1050A000DDE90623FBF718FA04F130060B46024649
:1050B000DDE90401FBF758F807F8016B089E029B35
:1050C000BE1BB3423AD102460B46FBF74FF80246ED
:1050D0000B46CDE90223DDE90623FBF78DFC58BB27
:1050E000DDE90623DDE90201FBF75EFC08B1E1071B
:1050F00022D42846514600F0F1FA00233B70249B4D
:1051000009F101001860269B002B3FF4DFAC1F6003
:10511000DCE427463B461F4613F8012D392A07D108
:10512000089A9A42F7D13022089908F101080A70CA
:105130001A7801321A709FE7C846EBE70022724BDB
:10514000FBF7CAF902460B46CDE9042300220023EF
:10515000FBF72AFC002898D0CBE70B9A002A00F036
:10516000CD80229A012A00F3AF80139A002A00F022
:10517000A78003F233430A9C069F069A01211A4432
:105180000692099A28461A44099200F061FB0646E5
:10519000002F0CDD099B002B09DDBB42A8BF3B465D
:1051A000069AFF1AD21A0692099AD31A09930A9BF1
:1051B000F3B10B9B002B00F0A980002C10DD3146D1
:1051C0002246284600F0FEFB524601460646284687
:1051D00000F054FB80465146284600F07FFAC24654
:1051E0000A9B1A1B04D05146284600F0EBFB82466E
:1051F0000121284600F02CFB0E9B0446002B40F3B7
:1052000087801A460146284600F0DCFB229B0446B4
:10521000012B40F380804FF00008236904EB8303E7
:10522000186900F0C7FAC0F12000099B184410F07B
:105230001F0000F09280C0F12003042B40F38A800D
:10524000C0F11C00069B074403440693099B0344DA
:105250000993069B002B05DD51461A46284600F0AF
:105260000BFC8246099B002B05DD21461A46284689
:1052700000F002FC04460F9B002B70D021465046E4
:1052800000F066FC00286ADA002351460A2228460C
:1052900000F046FA0B9B824609F1FF39002B00F023
:1052A0009381314600230A22284600F039FABBF1E7
:1052B000000F064600F39380229B022B57DC8EE002
:1052C000169BC3F1360356E7029B5C1E0A9BA34262
:1052D000B7BF0A9B1C1BE21A0E9BBEBF0A949B1809
:1052E0000E93029BB8BF0024002BBBBF069B029A03
:1052F000069F9F1AACBF029B00233EE70A9C069FB5
:105300000B9E45E70000E03F000024400A9A6AE750
:10531000229B012B19DC049BBBB9059BC3F3130330
:105320009BB9059B23F000431B0D1B0583B14FF078
:105330000108069B01330693099B013309930E9BD9
:10534000002B7FF46AAF01206FE74FF00008F6E70B
:105350009846F4E73FF47DAF18461C3072E7029B95
:10536000002B36DC229B022B33DDDDF808B0BBF1CD
:10537000000F0DD121465B460522284600F0D0F9EA
:1053800001460446504600F0E3FB00283FF7B6AD67
:10539000239B089F6FEA03094FF000082146284627
:1053A00000F09CF9002E3FF4A4AEB8F1000F05D038
:1053B000B04503D04146284600F090F931462846D2
:1053C00000F08CF995E600242646E1E7C146264622
:1053D00094E50B9BDDF808B0002B00F0FC80002F5B
:1053E00005DD31463A46284600F046FB0646B8F150
:1053F000000F5CD02846716800F030F9074628B9E4
:10540000024640F2EA217E4BFFF726BB326906F1E5
:105410000C01023292000C3000F012F901223946E0
:10542000284600F029FBB0460646089B013302934C
:10543000089B5B440A93049B03F001030993029BBE
:105440002146504603F1FF3BFFF764FA034641460D
:105450003033049050460B9300F07AFB32460690AE
:105460002146284600F090FBC26807460B9B02BB12
:105470000146504600F06CFB02460B9B394628461D
:10548000CDE90B3200F02AF9229B0C9A029F43EAE5
:105490000201099B0B430B9B0DD1392B27D0069A98
:1054A000002A01DD049B31338BF8003076E730466B
:1054B000B9E70122E2E70699002904DB22980143BB
:1054C0000998014320D1002AEEDD514601222846E9
:1054D000029300F0D1FA2146824600F039FB002801
:1054E000029B02DCE0D1DA07DED5392BDAD1392391
:1054F0008BF800303B461F4617F8012C013B392A38
:1055000050D001321A7049E7002A03DD392BEED062
:105510000133C9E7029A0A9902F8013C8A422AD06B
:10552000514600230A22284600F0FAF8B045824688
:105530004FF000034FF00A024146284607D100F021
:10554000EFF880460646029B0133029377E700F0AE
:10555000E7F83146804600230A22284600F0E0F8AA
:105560000646F0E7BBF1000FCCBF5F4601274FF0C6
:105570000008089A1744514601222846029300F079
:105580007BFA2146824600F0E3FA0028B2DC02D121
:10559000029BDB07AED43B461F4613F8012D302A91
:1055A000FAD0FBE6089A9A42A5D1312309F1010904
:1055B0001370F3E6134BFFF7A7BA269B002B7FF47B
:1055C00080AA114BFFF7A0BABBF1000F03DC229BAE
:1055D000022B3FF7CCAE089F21465046FFF79AF9C1
:1055E000089A00F1300307F8013BBA1A9345B9DD78
:1055F000514600230A22284600F092F88246EBE743
:105600006C6F0008C46D0008E96E00080048704720
:1056100070010020024B0146186800F0FBBB00BF80
:105620001C000020034610B5C9B20244934218463C
:1056300001D1002003E0047801338C42F6D110BD83
:105640000A44914200F1FF3300D1704710B511F8C0
:10565000014B914203F8014FF9D110BD70B5466A74
:1056600004460D4676B91020FFF7D4FF024660626B
:1056700020B96621174B184800F092FDC0E9016679
:105680000660C660666AF36883B1636ADB6853F8D4
:105690002500B8B9012101FA05F6721D20469200D5
:1056A00000F05EFB60B1C0E901560EE0212204214A
:1056B000204600F055FB636AF060DB68002BE4D104
:1056C000002070BD026843F825200023C0E90333A1
:1056D000F7E700BFF66E00087D6F000870B5466AF8
:1056E00005460C4676B91020FFF794FF0246686223
:1056F00020B98A21084B094800F052FDC0E9016633
:105700000660C6603CB16B6A6268DB6853F82210C1
:10571000216043F8224070BDF66E00087D6F0008DE
:105720002DE9F04198460C4600230E69074601F129
:10573000140005680133A9B202FB01812D0C4FEA68
:10574000114C02FB05C589B201EB05419E424FEAAF
:10575000154840F8041BECDCB8F1000F22D0A36818
:10576000B34219DC616838460131FFF777FF05461F
:1057700028B90246B5210D4B0D4800F011FD2269F4
:1057800004F10C01023292000C30FFF759FF214660
:105790003846FFF7A3FF2C4604EB86030136C3F817
:1057A000148026612046BDE8F08100BF6C6F0008C0
:1057B0007D6F0008020C12040346CAB903041020CE
:1057C00013F07F4F04BF1B02083013F0704F04BF6B
:1057D0001B01043013F0404F04BF9B000230002B2C
:1057E00005DB13F0804F00F1010008BF2020704757
:1057F0000020E5E70368024613F007000BD0D90745
:1058000022D4980749BF5B089B08012013605CBF46
:1058100002201360704799B209B910201B0C13F0D5
:10582000FF0F04BF1B0A0830190704BF1B0904300F
:10583000990704BF9B080230D90703D45B0800F125
:10584000010003D01360704700207047202070478C
:1058500010B50C460121FFF701FF024628B94FF4AD
:10586000A071044B044800F09BFC012344610361D8
:1058700010BD00BF6C6F00087D6F00082DE9F04F70
:1058800014460A6923690D469A42BEBF0B46254657
:105890001C46D5F810A0D4F81090AB6869680AEBE4
:1058A0000907BB4285B0B8BF0131FFF7D7FE30B959
:1058B000024640F25D11414B414800F071FC00F19D
:1058C00014063346002206EB870843451ED305F134
:1058D000140C04F114030CEB8A0C03EB8902029202
:1058E000ACEB0502153A22F00302043205F1150172
:1058F0008C4538BF04220192029A03939A4208D839
:10590000002F55DC076105B0BDE8F08F43F8042B8C
:10591000DBE7B3F800A0BAF1000F20D0B1460022B7
:1059200005F1140E5EF8044BD9F800B0A1B21FFACD
:105930008BFB0AFB01B11144D9F80020240C120C96
:105940000AFB042404EB114489B241EA0441F44502
:105950004FEA144249F8041BE4D801997250039AA3
:105960000433B2F80290B9F1000F1FD0B6464FF0E1
:10597000000A346805F114010A88BEF802B0A4B226
:1059800009FB02B2924444EA0A444EF8044B51F82F
:10599000044BBEF80020240C09FB04248C4504EBC6
:1059A0001A444FEA144AE7D8019AB4500436A3E7E0
:1059B00058F8043D002BA5D1013FA1E76C6F00080A
:1059C0007D6F00082DE9F843154612F003020646E4
:1059D0000F4607D0254C013A002354F82220FFF748
:1059E0009FFE0746AD103DD0746A7CB91020FFF7CA
:1059F00011FE0246706228B94FF4D7711C4B1D4846
:105A000000F0CEFBC0E901440460C460D6F82480F5
:105A1000D8F808404CB940F271213046FFF718FF22
:105A200000230446C8F8080003604FF00009EB07A4
:105A30000AD5394622463046FFF720FF80463946D0
:105A40003046FFF74BFE47466D100BD0206838B943
:105A5000224621463046FFF711FF2060C0F8009033
:105A60000446E4E73846BDE8F88300BFD07000087C
:105A7000F66E00087D6F00082DE9F0470C460746DA
:105A800091462369496803EB6218A3684FEA621ADA
:105A900008F10106B3420BDB3846FFF7DFFD054690
:105AA00048B9024640F2D911274B284800F078FB4C
:105AB00001315B00EEE7002300F1140100F1100258
:105AC0001846534533DB20692AEAEA7A04F11403C5
:105AD00019F01F0901EB8A0103EB800C2BD08A46D9
