:020000040800F2
:10000000F005002005010008AB2A00089F27000822
:10001000A92A0008090F000821320008000000008A
:100020000000000000000000000000008B2C000811
:100030000B0F000800000000892C00088D2C000820
:100040001F0100081F0100081F0100081F01000810
:100050001F0100081F0100081F0100081F01000800
:100060001F0100081F010008230F00081F010008DE
:100070001F0100081F0100081F0100081F010008E0
:100080001F0100081F0100081F0100081F010008D0
:100090001F0100081F0100081F0100081F010008C0
:1000A0001F010008F12C00081F0100081F010008B3
:1000B000FD2C0008092D0008000000001F010008A9
:1000C0001F01000800000000000000001F010008E0
:1000D00000000000153200081F01000800000000A9
:1000E0000D0F00081F0100081F010008DFF810D0E5
:1000F00000F00EFD004800471D3D0008AFF30080F2
:10010000F00500200648804706480047FEE7FEE766
:10011000FEE7FEE7FEE7FEE7FEE7FEE7FEE7FEE7B7
:10012000ED2C0008ED000008202A04DB203A21FA1B
:1001300002F00021704721FA02F3D040C2F1200200
:10014000914008431946704740EA01039B0703D0DA
:1001500009E008C9121F08C0042AFAD203E011F806
:10016000013B00F8013B521EF9D27047D2B201E0C8
:1001700000F8012B491EFBD270470022F6E710B5AC
:1001800013460A4604461946FFF7F0FF204610BD05
:10019000CAB2401E10F8011F8A4202D00029F9D1CC
:1001A00000207047421C10F8011B0029FBD1801A67
:1001B0007047F0B480EA0102D40F4200B2EB410F65
:1001C00002D20246084611464A0042D0C30DDDB2B3
:1001D000C1F3C752AD1A202D35DAC1F3160141F42F
:1001E000000204B15242C5F1200602FA06F12A418A
:1001F0001044B3EBD05F23D0C4B1012DA0EBC350AA
:1002000009DCF0BC4FF0004202EAC352DBB200F559
:10021000000000F0A4BB400000F1807000EBC35070
:10022000A0F1807040EAD170490009E0490841EA34
:10023000C071A0EBC35000F50000400800EBC350B4
:10024000F0BC00F083BB6142012202EB4101001BC4
:10025000F6E7F0BC704781F00041AAE780F000406B
:10026000A7E780EA010210B502F00043400022D067
:100270004A001FD0010E01EB1261C0F35600C2F319
:10028000560240F4000042F40002A0FB02200004E9
:100290007F39140400D0401C50EA124001D44000C1
:1002A000491EC2B20C0604EBD010401C4008802A44
:1002B00002D003E0002010BD20F00100002900DA88
:1002C0000020184310BD30B480EA010202F000455E
:1002D00030F0004221F0004013D090B1C30DD40D96
:1002E000C2F31601C0F31600E41A41F4000140F411
:1002F00000027D34914201D3641C00E04900002CCF
:1003000002DA30BC002070474FF400000023914215
:1003100001D3891A034340084FEA4101F7D151B193
:10032000914202D14FF0004105E002D24FF00101AD
:1003300001E06FF0010103EBC450284430BC00F031
:1003400005BB420005D0C0F3C7525242914201DCC6
:100350000020704700EBC15070472DE9FE4F8046EA
:1003600081EA0300C00F0C46009021F0004123F009
:100370000045B8EB0200A94105D24046214690460F
:100380001C460B46024623F00040104347D0270D81
:10039000C7F30A00C3F30A510290401A01904028A3
:1003A0006BDAC3F3130040F4801B0098924620B12F
:1003B0000023D2EB030A63EB0B0B01985946C0F103
:1003C0004002504600F053FA06460D465046594644
:1003D000019A00F05BFA10EB08006141002487EA03
:1003E000115284EAE7731A4340D0009A62B3019A2B
:1003F000012A4FEA075215DC001B61EB02014FF0A6
:10040000004202EA0752CDE90042001C41F580118A
:1004100032462B4600F0FEFA03B0BDE8F08F4046AE
:100420002146F9E7001B61EB0201001C41F5801336
:1004300000185B412018A2F5001747EB030140EAC2
:10044000D570B6196D4111E06D084FEA360645EAE0
:10045000C0754FEA0752001B61EB0201001C41F519
:10046000801149084FEA30000019514132462B46AD
:1004700003B0BDE8F04F00F0BEBA00980122400082
:100480000023D0EB020263EBE073009821464FEAB1
:10049000E074B8EB000061EB0401E9E783F000438E
:1004A0005BE781F0004158E72DE9FE4F81EA030444
:1004B00004F0004421F0004100944FF0000B23F0C1
:1004C000004350EA01045ED052EA03045BD0C3F358
:1004D0000A54C1F30A552C44A4F2F3340194A0FB4E
:1004E0000254C1F3130141F48011C3F3130343F425
:1004F000801301FB024400FB034E840A970A44EA7E
:10050000815447EA8357A4FB076802958D0A05FBCF
:1005100007854FEA932C04FB0C542705029D4FEAF4
:10052000065847EA1637B5EB08056EEB070C870E41
:10053000920E47EA811742EA8312A7FB0201B6EB4B
:100540000B0164EB00042B0D43EA0C335E1844EB03
:100550001C50DA465146E7FB0201C5F313044FEA8B
:100560000B3343EA14534FEA0432019C43EA060377
:10057000A4F10C040294009CCDE900B400F04AFA06
:1005800003B0BDE8F08F00200146F9E72DE9F04DFA
:1005900081EA030404F0004B21F0004514464FF0BB
:1005A000000A23F0004150EA050220D054EA01027B
:1005B0001DD0C5F30A570246C5F31303C1F3130058
:1005C000C1F30A5640F4801543F48013A7EB0608E4
:1005D000101BD64608F2FD3873EB050002D308F174
:1005E000010801E092185B41B8F1000F03DA002026
:1005F0000146BDE8F08D00204FF480110646844688
:100600000EE0171B73EB050705D3121B63EB050305
:1006100006434CEA010C49084FEA300092185B414E
:1006200050EA0107EDD152EA030012D082EA040039
:1006300083EA0501084305D0101BAB4106D2012215
:10064000002306E000224FF0004302E06FF00102B9
:1006500053101AEB06004CEB085110EB0A0041EB6B
:100660000B01BDE8F04D00F0C6B970B521F00043B4
:1006700003430CD0C1F30A550024D5EB040564EB09
:100680000403D617AD1AB34102DB0020014670BD4A
:10069000201841EB025170BDC10F80EAE0700844A0
:1006A000CA079623002100F05AB99623002211466A
:1006B00000F055B90EB540F2334102910021CDE969
:1006C00000110A460B4600F0A5F903B000BD00F08A
:1006D000004220F00040C10DC0F3160040F40000BD
:1006E0007F2901DA00207047962903DCC1F19601C9
:1006F000C84001E096398840002AF4D04042704753
:1007000020F00040C10DC0F3160040F400007F2926
:1007100001DA00207047962903DCC1F19601C84038
:10072000704796398840704700F0004230F0004032
:100730000AD0C10D01F56071C0F3160042EA015103
:10074000C20840071143704700200146704700006F
:1007500030B5041E71F1000404DB4FF00044404248
:1007600064EB0101141E73F1000405DB1C464FF01D
:100770000043524263EB04038B4208BF824230BD08
:1007800001F0004330B421F0004150EA010206D0EC
:100790000A0DA2F56072C1F31301002A02DC30BC1D
:1007A00000207047440F44EAC104C100E01830BC87
:1007B00000EBC25000F0CAB8002801DBC0F10040D5
:1007C000002901DBC1F1004181427047002801DBB3
:1007D000C0F10040002901DBC1F1004188427047AF
:1007E00030B50B46014600202022012409E021FA01
:1007F00002F59D4205D303FA02F5491B04FA02F5FE
:100800002844151EA2F10102F1DC30BD2DE9F05F94
:100810000546002092469B4688460646814640246F
:100820001BE02846414647462246FFF77DFC5346DB
:100830005A46C01A914110D311461846224600F07C
:1008400016F82D1A67EB01084F46224601200021B9
:1008500000F00DF817EB00094E41201EA4F1010431
:10086000DFDC484631462A464346BDE8F09F202A51
:1008700004DB203A00FA02F1002070479140C2F1F7
:10088000200320FA03F3194390407047202A06DB27
:10089000CB17203A41FA02F043EAE07306E041FA4E
:1008A00002F3D040C2F1200291400843194670473C
:1008B0000FB4002300B589B00CA900910B996FF01B
:1008C0000042CB601E4B06931E4B07930423CDE9D9
:1008D00001321D4A089202466B46002000F0CCF916
:1008E00009B05DF814FB70B586B006464FF0FF30D6
:1008F0000091CDE90101002015460C4604903246D6
:10090000694604A8FFF7D4FF02460498211825B1D0
:1009100008B1084600E020462860049800280DD061
:10092000002A02DD0098884208D0081B0094CDE917
:1009300001043246694604A8FFF7BAFF06B070BD4D
:10094000B10E0008CF0E00083D0B00080029A8BF1B
:100950007047401C490008BF20F00100704710B4E8
:10096000B0FA80FC00FA0CF050EA010404BF10BC9D
:10097000704749B1CCF1200421FA04F411FA0CF1CA
:1009800018BF012121430843A3EB0C01CB1D4FEA03
:1009900000614FEA102042BF002010BC704700EBFE
:1009A000C35010440029A4BF10BC7047401C49002C
:1009B00008BF20F0010010BC704710B541000CD0FA
:1009C000C0F3C751962908DC7E2909DC06DB410209
:1009D00004D000F0004040F07E5010BD002010BD5B
:1009E000C1F19604C4F1200100FA01F1E040FFF7E3
:1009F000ADFFA04010BD10B5141E73F1000408DA5D
:100A0000401C41F1000192185B411A4301D120F0D2
:100A1000010010BD2DE9F04D92469B4611B1B1FA8F
:100A200081F202E0B0FA80F220329046FFF71FFF19
:100A300004460F4640EA0A0041EA0B0153465A4673
:100A4000084313D0114653EA010019D0C8F14002FF
:100A50005046FFF769FB05460E465046594642464A
:100A6000FFF705FF084305D0012004E02046394682
:100A7000BDE8F08D0020054346EAE0762C4337437D
:100A80000A986305E40AA0EB08000022FD0A44EA84
:100A900047540A3002D500200146E9E70105101944
:100AA0006941DDE9084500196941BDE8F04DA2E75B
:100AB000C1F30A52C1F3130140F2FF3341F4801134
:100AC0009A4202DA00200146704740F233439A42CC
:100AD000A2F2334202DC5242FFF726BBFFF7C7BE49
:100AE00030B5041E71F1000404DB4FF000444042B5
:100AF00064EB0101141E73F1000405DB1C464FF08A
:100B00000043524263EB0403994208BF904230BD58
:100B1000064C074D06E0E06840F0010394E807004A
:100B200098471034AC42F6D3FFF7E4FA4449000882
:100B300064490008004870474049000810B5044661
:100B4000FFF7F8FF0068005D00F0010010BD000035
:100B50002DE9FF4F087883B09946FF2805D0491C3E
:100B60002D2804D00024002008E000200BE0012400
:100B7000F9E700EB800003EB4000491C0B78FF2BEA
:100B8000F7D104B1404200230293147819461D4660
:100B90002D2C01D02B2C04D1521C2D2C13D0002431
:100BA0000294AA461478FF2C0FD00A25A3FB0578DF
:100BB00001FB05814FF0000C03FB0C11521CE319E3
:100BC0004AEB0101EEE70124EAE7814453EA010020
:100BD00002D019F5C87F06DA03980021C0E9001198
:100BE00007B0BDE8F08F0025AE4E2F46DFF8B88283
:100BF000184600F07DF9CDE90001B9F1000002DAF4
:100C0000C9F1000400E004460023A74A1AEB030BD5
:100C100042EB045A12E0E00707D02A463346384632
:100C20004146FFF741FC074688462A4633461046B0
:100C30001946FFF739FC05460E466410002CEAD130
:100C4000DDE90001B9F1000F5A46534606DAFFF715
:100C50009DFC3A464346FFF799FC05E0FFF724FC6C
:100C60003A464346FFF720FC029A0AB181F0004160
:100C7000039AC2E90001B3E72DE9FF4F1F468DB08B
:100C8000D7E901464FF0FF382E2045464FF00009C6
:100C90000B90B9696D1C0E988847396A824688475F
:100CA0000028F6D1BAF1FF3F0AD024F4D064002E18
:100CB00011DDBAF12B0F08D0BAF12D0F0BD102E0E4
:100CC000404611B08DE744F48064B9696D1C0E98FC
:100CD00088478246761E6946600501D52D2000E0D2
:100CE0002B208DF8000001F1010B0DF1200809E027
:100CF000B9696D1C0E98884782460F9844F40074B9
:100D0000761E0560002E02DDBAF1300FF0D00B998F
:100D10008A453ED144F0800406E00F99681CA9F191
:100D2000010944F400740860B9696D1C761E0E98C0
:100D3000884782463028F0D02BE00B998A4505D1B0
:100D4000200603D444F08004761E18E0504602F0DA
:100D50003FFC08B30DF11301761E44F400748B457B
:100D600008D2AAF130000BF8010B200607D5A9F133
:100D7000010003E0200602D409F101008146A0052C
:100D800002D50F99681C0860B9696D1C0E988847D8
:100D90008246002ED1DC53E0002E51DDBAF1650F02
:100DA00002D0BAF1450F4BD1A00549D5B9696D1CE8
:100DB00024F44074761E0E9888478246002E0CDD7F
:100DC0002B2804D0BAF12D0F07D144F48074B969EF
:100DD0006D1C0E9888478246761EE00501D52D21B0
:100DE00000E02B2108F8011BCDF82C8021E00DF14B
:100DF0002901761E44F4007488450CD2AAF1300013
:100E000010F0FF0088F8000002D10B99884509D93D
:100E100008F1010806E0E00501D5244801E042F2AE
:100E20000F708146B9696D1C0E98884782460F98ED
:100E30000560002E04DD504602F0CAFB0028D6D122
:100E4000F9690E988847FF208BF8000088F80000A9
:100E50000020069007904B466A4608A906A8FFF7AF
:100E600077FEA00502D46FF001002AE714F0240FEA
:100E70000AD0E00714D1DDE906123868031D3B6093
:100E80000068C0E900120BE0DDE90601FFF778FC1D
:100E90000146E00704D13868021D3A60006801602D
:100EA00028460EE7000014400000F03FF1D8FFFF95
:100EB000426842B1016811F8013B23B1521EC0E9FA
:100EC0000012184670470121C160881E70474268B1
:100ED0005AB1C368016843B983688B4205D0491E83
:100EE000521CC0E90012002070474FF0FF307047DD
:100EF0000EB540F2334202920022CDE900221346A1
:100F0000FFF788FD03B000BDFEE7704710B54FF452
:100F1000806000F0DFF8BDE810404FF4006000F0A2
:100F2000D9B8102000F0D6B810B590F821100022E2
:100F3000022905D00421816380F82020012010BD02
:100F400001680B6823F00E030B6001680B6823F047
:100F500001030B6090F84030012404FA03F1C36BE5
:100F6000596080F8214080F82020104610BD000014
:100F700010B590F821100024022903D004218163C8
:100F800001243DE001680A6822F00E020A6001684F
:100F90000A6822F001020A601A4A0168914201D1EE
:100FA000012121E0174A1432914201D110211BE0A6
:100FB000144A2832914201D1891515E0114A3C3278
:100FC000914201D189140FE00E4A5032914202D170
:100FD0004FF4803108E00B4A6432914202D14FF461
:100FE000801101E04FF08071064A083A51600121FA
:100FF00080F82110002180F82010416B01B1884752
:10100000204610BD0800024070B5044600F054F9B7
:101010000546601C02D004480078044400F04CF9F6
:10102000401BA042FAD370BD580000202DE9F041CA
:101030000024244B244D254F254EB0F5806F11D050
:10104000B0F5006F22D010280AD1B470B461F470EA
:10105000347101220821384600F029F928684463D8
:10106000BDE8F08100220421184600F020F9012299
:101070000821384600F01BF901222021384600F0F3
:1010800016F928684463B470347118E00122042111
:10109000184600F00CF900222021384600F007F92C
:1010A000B07828B101203071296896204863D7E7CD
:1010B00001220821384600F0FAF828684463F470E9
:1010C000CEE7000000080140B4000020000C014001
:1010D0001C000020044910B50A68024202D00860D2
:1010E000FFF7A4FF10BD0000140401402DE9F84FE4
:1010F000DFF89491002409F1040A0AF1040B234655
:101100004FF00F080BF1040EB7E00127A7403A405B
:10111000BA4272D1DFF874C14D68A5EB0C06654583
:101120002BD00DDC032D34D005DC35B3012D19D0C7
:10113000022D2FD11BE0112D16D0122D2AD119E02E
:10114000B6F5881F19D006DCB6F5803F15D0B6F588
:10115000801F1FD111E0B6F5001F0ED0B6F5041F99
:1011600018D10AE0CB6815E0CB681B1D12E0CB68F4
:1011700008330FE0CB680C330CE08B682BB1012BEC
:101180004FF0080303D0476104E0042302E0076145
:1011900000E00023FF2A01D8064601E000F1040622
:1011A0004FEA840501D9A5F12005376808FA05FC46
:1011B00027EA0C0703FA05F547EA050737604D688B
:1011C000ED0059D5324DAE6946F00106AE61AD690C
:1011D00024F0030605F0010500952E4D7719BE6831
:1011E000A5072D0F08FA05FC26EA0C06DFF8A8C0B3
:1011F000604503D14FF0000C10E03DE0DFF89CC0EB
:10120000604502D14FF0010C08E0DFF894C0604562
:1012100002D14FF0020C01E04FF0030C0CFA05FC78
:101220004CEA060CC7F808C04D68D9F80060ED0319
:101230004D4601D5164300E096432E604D68DAF81E
:101240000060AD03554601D5164300E096432E607D
:101250004D68DBF80060ED025D4601D5164300E005
:1012600096432E604D68DEF80060AD02754601D5EC
:10127000164300E096432E60641C0A6832FA04F5B7
:101280007FF443AFBDE8F88F000401400000111067
:10129000001002400000014000080140000C014025
:1012A000001001408068084000D0012070470AB15A
:1012B000016170470904FBE701488068704700003E
:1012C000580000200248816802781144816070470C
:1012D00058000020074810B5016841F01001016076
:1012E000032000F075F8032000F006F800F024F861
:1012F000002010BD0020024070B50D4D04464FF493
:101300007A712878B1FBF0F00A490968B1FBF0F076
:1013100000F0EEFA48B9102C07D200222146501EE8
:1013200000F036F800206C6070BD012070BD000038
:1013300058000020640000200C4808B5816941F085
:1013400001018161816901F001010091C16941F0F0
:101350008051C161C069064900F080500090486822
:1013600020F0E06040F08060486008BD001002405E
:1013700000000140002809DB00F01F02012191401C
:101380004009800000F1E020C0F800117047000023
:10139000F0B40E4B1B68C3F30223C3F10704042C03
:1013A00000D904241D1D072D01D2002300E0DB1EFF
:1013B000012606FA04F56D1E0D409D409E40761EE6
:1013C000164045EA0601F0BC01F053BF0CED00E009
:1013D000064A00F0070110684FF6FF03184040EA84
:1013E0000120034908431060704700000CED00E045
:1013F0000000FA052DE9F0470D46040067D0DFF83C
:101400001881D8F8000000F00700A8420CD2D8F8E4
:10141000001021F007012943C8F80010D8F8000097
:1014200000F00700A84252D120683C4E810712D537
:10143000400703D5706840F4E060706020780007D2
:1014400003D5706840F4605070607068A16820F047
:10145000F000084370602078C00727D0606801283A
:1014600010D03168022810D0890700292FDA71685E
:1014700021F0030101437160FFF71EFF074641F2AF
:1014800088390CE031688903EFE78901EDE7FFF760
:1014900013FFC11B494502D90320BDE8F0877068DE
:1014A000616800F00C00B0EB810FF0D1D8F80010AB
:1014B000404601F00701A9420BD9016821F007015C
:1014C00029430160006800F00700A84201D0012014
:1014D000E3E72078400705D57068E16820F4E06014
:1014E000084370602078000706D57068216920F4F1
:1014F000605040EAC100706000F038F87168084A36
:10150000C1F30311515CC8400649086006480068F1
:10151000FFF7F2FE0020C0E700200240001002406A
:1015200082480008640000205C000020044805494F
:1015300000684968044AC1F30221515CC840704701
:101540006400002000100240924800080448054949
:1015500000684968044AC1F3C221515CC840704721
:1015600064000020001002409248000812A085B0DC
:101570000FC88DE80F0014A0144B00680490596840
:10158000134801F00C02042A10D0082A0ED1C1F32E
:101590008342C9031DF802000AD5596804AAC1F3A1
:1015A0004041515C0A4A5043B0FBF1F005B070472E
:1015B00008494843FAE70000020304050607080942
:1015C0000A0B0C0D0E0F101001020000001002405B
:1015D00000127A0000093D002DE9F84F04006FD099
:1015E0002078BE4DC00747D06868C0F3810001284D
:1015F00007D06868C0F38100022809D16868C00379
:1016000006D52868800337D560680028E7D033E026
:101610006068B0F5803F0BD010B1B0F5A02F11D0AD
:10162000286820F480302860286820F4802002E0B8
:10163000286840F480302860606888B1FFF73CFE7D
:10164000064609E0286840F480202860F0E7FFF7AC
:1016500033FE801B642873D828688003F7D50BE01D
:10166000FFF72AFE064604E0FFF726FE801B6428EB
:10167000F1D828688003F7D42078DFF864828007E7
:101680004FF0010A4FF0000939D5686810F00C0FCF
:1016900007D06868C0F38100022809D16868C003D8
:1016A00006D42868800714D52069012808D110E0E5
:1016B0002069B0B1C8F800A0FFF7FEFD064605E0BE
:1016C00007E1FFF7F9FD801B0228C4D828688007CE
:1016D000F7D52868616920F0F80040EAC100286069
:1016E0000DE0C8F80090FFF7E7FD064604E0FFF7BD
:1016F000E3FD801B022823D828688007F7D42078D0
:1017000000072CD57748A169D9B1C0F800A0FFF730
:10171000D3FD064604E0FFF7CFFD801B02280FD85B
:10172000686A8007F7D570484FF4FA510068B0FB3B
:10173000F1F0009000BF0098411E0091FAD20EE037
:101740007CE0C0F80090FFF7B7FD064604E0FFF725
:10175000B3FD801B022871D8686A8007F7D420780F
:1017600040075BD5E8690027C00008D4E86940F06D
:101770008050E861E869012700F0805000905B48E4
:101780000168C90511D40168834641F48071016084
:10179000FFF792FD064604E0FFF78EFD801B6428EC
:1017A0004CD8DBF80000C005F6D5E06801280AD067
:1017B00008B1052813D0286A20F001002862286AA1
:1017C00020F0040002E0286A40F001002862E0688E
:1017D00041F2883B88B1FFF76FFD064609E0286AB1
:1017E00040F004002862EEE7FFF766FD811B5945D3
:1017F0005BD8286A8007F7D50BE0FFF75DFD06464A
:1018000004E0FFF759FD811B59454ED8286A80072F
:10181000F7D41FB1E86920F08050E861E069A8B30F
:101820006968C1F38101022946D00228484606D0E2
:10183000C8F86000FFF740FD044639E035E0474650
:10184000C8F86000FFF738FD064604E0FFF734FDF6
:10185000801B022829D828688001F7D4206AB0F5B7
:10186000803F05D16868A16820F4003008436860B3
:10187000D4E908010843696821F4741108436860D9
:10188000C7F860A0FFF718FD044605E023E0FFF766
:1018900013FD001B022808D828688001F7D51AE03C
:1018A000FFF70AFD001B022802D90320BDE8F88FCC
:1018B00028688001F4D40EE00128F7D06868226A15
:1018C00000F48031914204D1616A00F470108842C2
:1018D00001D00120EAE70020E8E700000010024004
:1018E0000000424280044242640000200070004038
:1018F00010B5401EB0F1807F01D3012010BD4FF024
:10190000E02460610F21601701F0B3FC0020A061AA
:1019100007202061002010BD7047704770B590F817
:101920003C20012A23D0012580F83C50022280F877
:101930003D2002685368966823F070040B682343C7
:1019400053600C4B02689A4205D0B2F1804F02D02E
:10195000094B9A4204D1496826F0800319439160EB
:1019600080F83D50002180F83C10084670BD0220F0
:1019700070BD0000002C01400004004010B50400C0
:1019800003D094F83D0010B107E0012010BD002005
:1019900084F83C00204600F01FF8022084F83D0047
:1019A000211D206801F0B6F9012084F8460084F872
:1019B0003E0084F83F0084F8400084F8410084F839
:1019C000420084F8430084F8440084F8450084F819
:1019D0003D00002010BD000010B586B0002400942A
:1019E0000194029403942C4A01682C4891420ED130
:1019F000816941F4006181618069002200F4006026
:101A0000049002211920FFF7C3FC192040E0B1F136
:101A1000804F2FD0224A91423CD1C16941F002014E
:101A2000C161C16901F002010491816941F00401C1
:101A30008161816901F004010491816941F008012B
:101A400081618069694600F008000490C020009020
:101A50001448FFF74BFB0120CDE90004694612480A
:101A60000294FFF743FB002211461D20FFF790FC74
:101A70001D200DE0C16941F00101C161C069002272
:101A800000F00100049011461C20FFF781FC1C208F
:101A9000FFF770FC06B010BD002C014000100240A2
:101AA0000004004000080140000C014090F83D1087
:101AB000012901D001207047022180F83D10016802
:101AC000CA6842F00102CA6000680A49884205D02B
:101AD000B0F1804F02D00849884204D1816801F0FA
:101AE0000701062903D0016841F0010101600020CF
:101AF00070470000002C01400004004070B504460F
:101B000090F83C00012817D0012584F83C500220B1
:101B100084F83D002068826822F0770222F47F4238
:101B200082600868502830D00DDC20284DD005DCBC
:101B300098B310283BD148E0022070BD302844D033
:101B4000402834D139E0602828D0702806D0B0F57C
:101B5000805F2CD0B0F5005F29D10AE0CB68D1E9D5
:101B60000121206801F011F92068816841F07701B6
:101B700009E0CB68D1E90121206801F006F920686D
:101B8000816841F48041816011E0CA684968206839
:101B900001F0B6F95021206807E016E0CA684968EC
:101BA000206801F0E7F96021206801F0F8F884F876
:101BB0003D50002084F83C0070BDCA684968206828
:101BC00001F09EF940212068EFE7226801461046A7
:101BD000EBE70068426822F080020A43426000207E
:101BE0007047000070B50446007F04281DD108210D
:101BF000204600F0A9FB0D4D0021286122685162AA
:101C0000FEF753FD01460A48FEF75DFB686120219F
:101C10000848FFF747FB18B9686980F00040686121
:101C2000012068712168C01E086170BD1C00002081
:101C30000060EA48000C01402DE9F041054690F8AB
:101C40003C000C46012836D0012085F83C008AB3C0
:101C5000042A42D02868082A51D0D4E90031E26829
:101C6000066A26F480560662C769066A27F440773A
:101C700047EA01214FF6FF7721F4704107EA02326B
:101C80000A434FF4005126F4005601EA0331314370
:101C9000C26101622868C16921F44061C16128689C
:101CA000C169A26841EA0221C161002085F83C00B7
:101CB000BDE8F08101E00220FAE7D4E90012E36810
:101CC000286801F02FF92868816921F00C018161F1
:101CD00028688169A26811430FE0D4E90012E36823
:101CE000286801F059F92868816921F4406181610F
:101CF00028688169A26841EA02218161D5E7D4E9B7
:101D00000027267B016A21F480710162C169036AA0
:101D100021F00301394321F0F00731074FF4007639
:101D200047EA116123F4007306EA02221A43C161F3
:101D300002622868C16921F00C01C1612868C1698B
:101D4000A2681143B0E710B5040003D094F83D0039
:101D500010B107E0012010BD002084F83C002046AF
:101D600000F01EF8022084F83D00211D206800F0DC
:101D7000D1FF012084F8460084F83E0084F83F003B
:101D800084F8400084F8410084F8420084F843005D
:101D900084F8440084F8450084F83D00002010BD1C
:101DA0007047000010B5044679B1042910D0082905
:101DB00011D094F8410089B1042912D0082913D018
:101DC00094F84520012814D111E094F83E00F2E780
:101DD00094F83F00EFE794F84000ECE794F84220D5
:101DE000F0E794F84320EDE794F84420EAE7012A6D
:101DF00001D0012010BD022079B1042912D0082998
:101E000015D084F8410084F84500A9B1042918D000
:101E1000082934D00C2919D136E084F83E0084F822
:101E20004200F2E784F83F0084F84300EDE784F8CD
:101E3000400084F84400E8E72068C26842F00202EB
:101E400003E02068C26842F00402C26001222068F8
:101E500000F08EFF0F492068884205D0B0F1804F16
:101E600002D00D49884204D1816801F0070106299A
:101E700003D0016841F001010160002010BD20681D
:101E8000C26842F00802E0E72068C26842F010022F
:101E9000DBE70000002C01400004004070B5044660
:101EA000006801694FF00005C943890715D4C1686E
:101EB000C943890711D4E91E0161012020772068F8
:101EC00080698007204602D0FFF78CFE04E000F016
:101ED000BDF8204600F04CF9257720680169C94318
:101EE000490717D4C168C943490713D46FF00401E7
:101EF0000161022020772068806910F4407F20462D
:101F000002D0FFF76FFE04E000F0A0F8204600F0DA
:101F10002FF9257720680169C943090716D4C168DC
:101F2000C943090712D46FF008010161042020772A
:101F30002068C0698007204602D0FFF753FE04E006
:101F400000F084F8204600F013F925772068016935
:101F5000C943C90617D4C168C943C90613D46FF071
:101F600010010161082020772068C06910F4407FCB
:101F7000204602D0FFF736FE04E000F067F8204666
:101F800000F0F6F8257720680169C943C90708D130
:101F9000C168C943C90704D1891E0161204600F008
:101FA00035F920680169C943090609D4C168C943E4
:101FB000090605D46FF0800101612046FFF7ACFCF3
:101FC00020680169C943490609D4C168C943490663
:101FD00005D46FF040010161204600F0CAF9206885
:101FE0000169C94389060BD4C168C943890607D46E
:101FF0006FF0200101612046BDE87040FFF78DBC05
:1020000070BD000000B585B00021009101910291E2
:1020100003910068B0F1804F11D10A48816941F005
:10202000040181618069022100F004000490032012
:10203000CDE90001039069460348FFF757F805B062
:1020400000BD00000010024000080140704770B55C
:10205000044690F83C000D4601280AD0012084F87F
:102060003C0042B1042A18D0082A2AD00C2A4DD1AB
:1020700039E0022070BD206800F09AFE2068816976
:1020800041F0080181612068816921F004018161CA
:10209000206881692A69114311E0206800F0B4FECC
:1020A0002068816941F4006181612068816921F4BF
:1020B00080618161206881692A6941EA0221816128
:1020C00024E0206800F0CEFE2068C16941F00801DC
:1020D000C1612068C16921F00401C1612068C16942
:1020E0002A69114311E0206800F0E8FE2068C16908
:1020F00041F40061C1612068C16921F48061C1615E
:102100002068C1692A6941EA0221C161002084F87E
:102110003C0070BD10B5040003D094F83D0010B130
:1021200007E0012010BD002084F83C00204600F0AC
:102130001EF8022084F83D00211D206800F0EAFD11
:10214000012084F8460084F83E0084F83F0084F8BB
:10215000400084F8410084F8420084F8430084F889
:10216000440084F8450084F83D00002010BD70470D
:102170007047000010B5044649B104290AD0082967
:102180000BD094F8410001280AD0012010BD94F82A
:102190003E00F8E794F83F00F5E794F84000F2E7D6
:1021A000022029B3042926D0082927D084F8410029
:1021B0000122206800F0DCFD12492068884203D12A
:1021C000426C42F4004242642068884205D0B0F17B
:1021D000804F02D00C49884204D1816801F0070188
:1021E000062903D0016841F001010160002010BD03
:1021F00084F83E00DCE784F83F00D9E784F840002B
:10220000D6E70000002C0140000400402DE9F04F0B
:102210003C49006889B00968884256D13A4C082187
:102220002046FFF73FF8002853D0002081462021A8
:102230002046FFF737F8009004213448FFF732F8C2
:1022400083464FF480612046FFF72CF8002842D0E7
:10225000002188464FF400612046FFF723F8B8B309
:10226000002710212046FFF71DF8294C824660699F
:10227000FEF75AFA05460E46E068FEF755FA254A7B
:10228000254BFEF70BF9A2780B46CDE907A2CDE965
:1022900005870099CDE90056CDE902910246CDF8B7
:1022A00010B01EA1254800F0BDFF2448FDF77AFFBD
:1022B000224982B24FF0FF33A1F1440000F016FA38
:1022C0006079002158B1A171617109B0BDE8F08F4A
:1022D00003E00120AAE70121BBE70127C1E7184A73
:1022E0006069904202DC174A904201D96161ECE7D3
:1022F000A079401CC0B2A0710928E6D16161A1712A
:10230000E3E700006C000020000C014000080140E1
:102310001C000020CDCCCCCCCC4A9440252E31667C
:1023200020252E3166202564202564202564202563
:10233000642025642025642025640A00880100208B
:1023400000004843000048C30246002041B1042970
:1023500009D008290AD00C2901D11068006C7047F7
:102360001068406B70471068806B70471068C06BD6
:102370007047704770477047F8B5026804461068A8
:10238000D168536910F00F0F4FF0000553D003F0E0
:10239000010601F4907737435FD0C20705D0CA0524
:1023A00003D5226C42F001022264420705D5DA0708
:1023B00003D0226C42F002022264820705D5DA07BC
:1023C00003D0226C42F004022264020707D501F018
:1023D0002002324303D0226C42F008022264226CB5
:1023E000002A34D0800604D5880602D5204600F0A5
:1023F0000EFE20684069216CC0F38010090700D4EC
:1024000030B3204600F0EBFD2068416949061BD53A
:10241000416921F040014161A06BA8B15849416375
:10242000A06BFEF7A5FD002811D0A06B416B01B099
:10243000BDE8F040084783060FD58B060DD5204632
:10244000BDE8F84000F0E3BD2046FFF794FFF8BD7B
:102450002046FFF790FF2564F8BD266B2023012E50
:1024600052D1C60650D5CE064ED5106850680090A1
:10247000506940062AD5A16B086840680004000C2A
:10248000EAD0A68D8642E7D9E0858869202818D051
:10249000D06820F48070D0602068416921F001018B
:1024A00041612068416921F04001416184F83E307A
:1024B00025632068C16821F01001C160A06BFEF7A0
:1024C00033FDA08DE18D401A81B219E0A08DE18D20
:1024D000401A81B2E08D0028BED00029BCD0D0685F
:1024E00020F49070D0602068426922F001024261BD
:1024F00084F83E3025632068C26822F01002C26072
:102500002046FFF737FFF8BD05062BD50D0629D568
:1025100094F83D002128F6D1A068B0F5805F01D184
:102520002069B0B1206A411C2162216800784860AE
:10253000E08C401E0004000CE084E4D12068C168F7
:1025400021F08001C1602068C16841F04001C16094
:10255000F8BD206A0088C0F308005060206A801C23
:102560002062E5E74006F3D54806F1D5D16820465C
:1025700021F04001D16084F83D3000F00FF9F8BD42
:10258000CF2F000870B5040004D094F83D0000255A
:1025900010B106E0012070BD84F83C50204600F0E8
:1025A00023F8242084F83D002068C16821F40051FC
:1025B000C160204600F086FD2068016921F4904149
:1025C00001612068416921F02A0141612068C168E8
:1025D00041F40051C1602564202084F83D0084F856
:1025E0003E00002070BD000030B585B0002400948E
:1025F0000194029403940068184988422CD1184829
:10260000816941F480418161816901F480410491D3
:10261000816941F0040181618069124D00F004007C
:1026200004904FF40070009002200190032003906A
:1026300069462846FEF75AFD2815CDE9000469468B
:1026400028460294FEF752FD002201212520FEF7C4
:102650009FFE2520FEF78EFE05B030BD00380140FC
:10266000001002400008014090F83E30202B0ED1AF
:1026700059B152B190F83C30012B08D0012380F8B9
:102680003C300023036300F079BD01207047022035
:102690007047000030B413490068096888421FD1B0
:1026A000114C104A00212378763223B900201154AE
:1026B000401C1428FBDBE0790A2807D00D2805D040
:1026C0002F2803D0D0545B1C237002E001206070DF
:1026D00021700549012230BCC91D0248FFF7C4BF63
:1026E00030BC7047440100201C0000202DE9F84355
:1026F000044690F83D001F4615460E4620284BD153
:10270000C6B1BDB194F83C00012845D0012084F841
:102710003C004FF00008C4F84080212084F83D00C0
:10272000FEF7CAFDA5848146E584A068B0F5805F08
:1027300003D004E00120BDE8F883206920B13546CC
:10274000002684F83C800EE00025FAE78021204630
:1027500000F02FFDA0B9ADB115F8010B216848605C
:10276000E08C401EE084E08C4B464FF00002009766
:102770000028EBD14FF04001204600F01AFD30B1A7
:102780000320D8E736F8020BC0F30800E6E7202064
:1027900084F83D000020CEE70220CCE77047FEE73A
:1027A0002DE9F04786B0444800240294816941F045
:1027B00020018161816901F020010491816941F06A
:1027C00004018161816901F004010491816941F092
:1027D00008018161806903260225CDE9006500F0CA
:1027E0000800CDE90360DFF8D49069464846FEF75B
:1027F0007DFC00224FF482714846FEF758FDDFF859
:10280000C0A0002244F228015046FEF750FD0420EB
:102810000127CDE9000769464846CDE90245FEF7A4
:1028200065FCB00200902748CDE901076946504693
:10283000FEF75CFC68034FF01108CDE9000869461B
:102840005046CDE90245FEF751FCA803CDE900044E
:10285000694650460294FEF749FCE801CDE90008BC
:10286000CDE9024669464846FEF740FC2820CDE9FE
:10287000000769465046CDE90245FEF737FC1020B7
:1028800000901148CDE9010469465046FEF72EFC40
:10289000002211460A20FEF77BFD0A20FEF76AFDA2
:1028A000002211462820FEF773FD2820FEF762FD66
:1028B00006B0BDE8F08700000010024000080140AB
:1028C000000C0140000021100000111010B586B06E
:1028D0000024184800940194029403940494144929
:1028E0000594016040F26711C0E9011444F61F61CC
:1028F000C0E9031444618461FFF740F808B172B67F
:10290000FEE74FF48050009069460A48FFF7F6F85A
:1029100008B172B6FEE7049404A906480594FEF7D0
:10292000FDFF002801D072B6FEE706B010BD000022
:10293000002C01406C00002010B58EB000240794DC
:10294000089409940A940B941C2168460C94FDF792
:1029500014FC22484FF0804101600821C0E90114B5
:1029600040F28F11C0E903148461FFF707F808B142
:1029700072B6FEE74FF48050079007A91748FFF79B
:10298000BDF808B172B6FEE71448FFF7C3FB08B103
:1029900072B6FEE70B940BA910480C94FEF7BEFF2D
:1029A00008B172B6FEE76020CDE90004029400226F
:1029B00069460A480494FFF74AFB08B172B6FEE77D
:1029C000042269460548FFF742FB08B172B6FEE7EC
:1029D0000248FFF717FB0EB010BD0000B400002046
:1029E00010B58AB000242F480094019402940394F7
:1029F0000494059406940794089429490994016065
:102A000040F6B731C0E901144FF6FE71C0E9031476
:102A10008461FEF7B3FF08B172B6FEE74FF4805051
:102A2000009069461F48FFF769F808B172B6FEE7E3
:102A30001C48FFF788F908B172B6FEE7049404A9B0
:102A400018480594FEF76AFF08B172B6FEE7012048
:102A5000CDE906400894002206A912480994FFF720
:102A6000EBF808B172B6FEE7042206A90D48FFF79D
:102A7000E3F808B172B6FEE702200990082206A921
:102A80000848FFF7D9F808B172B6FEE7802105487B
:102A9000FFF79FF8002801D072B6FEE70AB010BD1C
:102AA00000040040FC000020FEE7FEE72DE9F05F97
:102AB000894692463B4980463B4A002019443B4D9B
:102AC000DDF828B01C46914204D300216960A9605A
:102AD000BDE8F09F0027FEF7EFFB2968401AFDF7DD
:102AE000E4FD0646FEF7E8FB286021465846FDF760
:102AF000B2FB044640462146FDF7B3FB83462C4813
:102B0000844202DA2B48844206D32B49A8688842C3
:102B100002DC2A49884207D931462046FDF7A1FB4D
:102B2000A968FDF746FBA8604846A968FDF799FB30
:102B3000DFF88C904946FDF7C6FB804616F0FF4F44
:102B40000FD020466968FDF786FB07465046494688
:102B5000FDF787FB3946FDF784FB3146FDF7B3FBF4
:102B6000074641465846FDF724FB3946FDF721FB51
:102B7000A969B4F5000F02DBFDF71BFB01E0FDF7CF
:102B80006AFB10496C60884202DC0F49884200D918
:102B90000846B4F13F4F9BD2B4F17C5F98DA002035
:102BA00096E70000008076BB01C0C4000000002052
:102BB0000000A0410000A0C10000C8430000C8C33D
:102BC00000007A440000C8440000C8C42DE9F05F4A
:102BD0009B4682468846914600260A9FFEF76CFB7C
:102BE000274CE168401AFDF760FD0546FEF764FBDF
:102BF000E06059463846FDF72EFB074650463946F9
:102C0000FDF72FFB834629463846FDF72AFB61690D
:102C1000FDF7CFFA014660614046FDF722FBDFF881
:102C200064A05146FDF74FFB804615F0FF4F0FD0D3
:102C300038462169FDF70FFB064648465146FDF729
:102C400010FB3146FDF70DFB2946FDF73CFB064620
:102C500041465846FDF7ADFA3146FDF7AAFAFDF7B1
:102C600036FD00B22761B0F5C87F03DB40F28F105C
:102C7000BDE8F09F10F5C87FFADC6FF4C770F7E786
:102C80000000002000007A4470477047FEF71ABB2E
:102C900030B58FB028216846FDF76FFA14210AA8D5
:102CA000FDF76BFA0120010400248DE81300049065
:102CB0004FF4E010CDE90810022507956846FEF7AD
:102CC0008BFC08B172B6FEE70F20CDE90A054FF480
:102CD0008060CDE90C4002210AA80E94FEF78AFB21
:102CE000002801D072B6FEE70FB030BD704700007B
:102CF0000148FFF7D3B800006C0000200148FFF73F
:102D0000CDB80000B40000200148FFF7C7B80000AC
:102D1000FC00002070B50268134C144D4FF0804643
:102D2000A04203D0B04201D0A84203D122F07003E8
:102D30004A681A43A04203D0B04201D0A84203D14E
:102D400022F44073CA681A434B6922F080021A4386
:102D500002608A68C2620A688262A04201D109697F
:102D600001630121416170BD002C0140000400405D
:102D700010B501F01F010123046A8B409C430462DB
:102D8000036A8A401343036210BD10B5846842EAA7
:102D9000032224F47F440A432243826010BD8268E8
:102DA00022F070020A4342F0070181607047000080
:102DB00030B5026A22F001020262036A4268846945
:102DC00024F073050C682C4323F002058B682B4319
:102DD0000C4DA84206D123F00805CB6843EA050351
:102DE00023F0040307D14D6922F4407245EA02053D
:102DF0008A6942EA0502426084614968416303626C
:102E000030BD0000002C014030B5026A22F01002F3
:102E10000262026A436884690D6824F4E64444EA65
:102E200005248D6822F0200242EA05120C4DA842CA
:102E300006D1CD6822F0800242EA051222F040025B
:102E400007D14D6923F4406343EA85038D6943EA62
:102E500085034360846149688163026230BD00007C
:102E6000002C014030B5026A22F480720262036ACB
:102E70004268C46923F4007324F073050C682C4382
:102E80008D6843EA05230C4DA84206D1CD6823F492
:102E9000006343EA052323F4806307D14D6922F4DC
:102EA000405242EA05128D6942EA05124260C4614D
:102EB0004968C163036230BD002C014030B5026A2D
:102EC00022F480520262036A4268C4690D6824F4E5
:102ED000E64444EA05248D6823F4005343EA0533AD
:102EE000064DA84204D14D6922F4804242EA85127F
:102EF0004260C46149680164036230BD002C014036
:102F000010B5046A036A23F001030362836923F0A6
:102F1000F00343EA021324F00A020A4383610262C7
:102F200010BD000070B5046A24F0010404628469D5
:102F3000056A0E4EB04205D0B0F1804F02D00C4E63
:102F4000B04203D124F00304144301E044F001042F
:102F50001A0724F0F00444EA126225F00A0301F093
:102F60000A0119438261016270BD0000002C01401A
:102F70000004004010B5036A23F010030362846963
:102F8000036A24F4704444EA023223F0A00343EAC3
:102F900001118261016210BD30B5046A24F0100491
:102FA00004628569046A25F4407545EA022222F428
:102FB00070454FF6FF7202EA033224F0A0032A4361
:102FC000A02404EA011119438261016230BD10B5E9
:102FD000406A0021C185C184FFF7CDF910BD0168A9
:102FE000CA6822F49072CA6001684A6922F001023C
:102FF0004A61016B012904D10168CA6822F01002FC
:10300000CA60202180F83E1000210163704708B596
:1030100090F83E10222901D0022008BD81684FF4AB
:103020008053994201D1026922B1826A99421BD030
:1030300049B10AE00268816A5268C2F308020A8054
:10304000816A891C08E0016971B10168496801F071
:103050007F011170816A491C8162C18D491E09047A
:10306000090CC18503D019E001684968F1E70168DE
:10307000CA6822F02002CA600168CA6822F480721D
:10308000CA6001684A6922F001024A61202180F881
:103090003E10016B012903D0FFF7FCFA002008BDA8
:1030A000002101630168CA6822F01002CA60016849
:1030B0000A68D20602D50A6849680091818DFFF737
:1030C00059F9EBE770B5044600680169E26821F43C
:1030D000405111430161A1682069014360690143C6
:1030E0002068C26841F20C639A430A43C2602068B8
:1030F0004169A26921F44071114341611E49206870
:10310000884202D1FEF722FA01E0FEF70FFA00EB47
:10311000C00101EB0011606864228000B1FBF0F394
:10312000B3FBF2F36FF018067343B1FBF0F5B1FB9C
:10313000F0F605EB8305322303EB0515B5FBF2F53D
:10314000B6FBF2F605F0F00505EB0615B1FBF0F65F
:10315000B1FBF0F0B0FBF2F06FF01801484306EB62
:10316000800003EB0010B0FBF2F0216800F00F00CC
:103170002844886070BD000000380140816282856B
:10318000C28500210164222280F83E2080F83C1094
:103190000168CA6842F48072CA6001684A6942F0F4
:1031A00001024A610068C16841F02001C16000204D
:1031B00070472DE9F0411E46174688460446069D95
:1031C0001CE0681C1AD025B1FEF776F8801BA842D7
:1031D00014D92068C16821F4D071C16020684169A8
:1031E00021F001014161202084F83D0084F83E0077
:1031F000002084F83C000320BDE8F08120680168CD
:1032000038EA010004D00020B842DAD00020F3E709
:103210000120F9E70148FFF7AFB8000044010020A2
:10322000FEE700000FB4084B10B504A902AA0398EA
:1032300000F0D6F9044602A9002000F054FD204613
:1032400010BC5DF814FB0000E73C000841000802D8
:1032500018BF04200A0E18BF40F001004FF07F4253
:1032600032EA010108BF40F00200012808BF052032
:1032700070470907090E002804DB00F1E02080F800
:103280000014704700F00F0000F1E02080F8141DDA
:1032900070470121FDF755B800210846FDF713B826
:1032A0006FF05E010807FDF74CB800002DE9F04D06
:1032B0000D4614464FF07F41B1EB440F9EBF4FF0D7
:1032C000FF312960BDE8F08D4FF0004040EA042155
:1032D000C4F3C750783810F01F024A4B4FEA601C05
:1032E000C2F120067B44C4F3C750A0F178004FEA36
:1032F000601003EB800053F82C3008BFD0E901C602
:1033000012D0D0F804C093402CFA06F73B438768EC
:103310000CFA02FC27FA06F8C06807FA02F2F0403D
:103320004CEA080C42EA0006A3FB0132ACFB01C0E8
:10333000A6FB016101EB0C068E4234BF4FF0010C7D
:103340004FF0000CC1186144BCF1000F02D0814263
:1033500002D903E0814201D2012000E000201044A4
:1033600000F120024FEA92188006CA0C40EA42306F
:103370004F03C5F80080FDF78FF982463846FDF708
:1033800094F96FF01201FCF7DCFF07463046FDF7B9
:103390008CF96FF02501FCF7D4FF8346394650467F
:1033A000FCF707FF5946FCF704FF00F500666FF3D2
:1033B0000B0651463046FCF74EFF3946FCF74BFFF3
:1033C0005946FCF74BFF1049FCF74BFF07460F49E6
:1033D0003046FCF746FF3946FCF7EBFE07460C4942
:1033E0003046FCF73EFF3946FCF7E3FE14F0004F91
:1033F00008BFBDE8F08DC8F1805180F00040296021
:10340000BDE8F08DB4150000DB0FC92F22AAFD29FD
:103410000000C92F014800687047000068000020C4
:1034200002E008C8121F08C1002AFAD1704770478D
:10343000002001E001C1121F002AFBD170470000EB
:103440000149086070470000680000202DE9FF5F17
:1034500082B00021DDE90430020DDDF840B0034305
:1034600018D044F61050A2F2FF32424315141198BE
:1034700001281FD0A5EB0B00401C5FEA000A4FF0AB
:1034800000064E4FDFF83891B046504615D5CAF1C8
:10349000000413E0119801244AA3012801D16FEA26
:1034A0000B010298119AC0E90031C0E9024206B04E
:1034B000BDE8F09FCBF10000DFE704460021404A61
:1034C000491842EB0450CDE9001012E0E00707D0A4
:1034D00032463B4640464946FCF7E6FF8046894671
:1034E00032463B4610461946FCF7DEFF06460F46BD
:1034F0006410002CEAD1DDE90401DDE90023BAF112
:10350000000F06DAFCF7D0FF42464B46FCF7CCFF33
:1035100005E0FDF73BF842464B46FDF737F8044619
:103520000E460022284BFDF7DBFA03D84FF0FF30A0
:10353000014607E00022254B20463146FCF70DFFEF
:10354000FDF7B6FA102409E0002C0ADB0A2200235A
:10355000FDF75CF9039B30321A55641E50EA0102F4
:10356000F2D1641C039AC4F111031444119A012A84
:1035700003D0012208430DD10AE0084304D0002003
:103580004FF0110B119072E7A3EB0B056D1E0DE0D0
:103590005B4504DD4FF0000205F1010504E003DAAC
:1035A0004FF00002A5F10105002AECD00298119914
:1035B000C0E90231C0E9004579E70000000014408D
:1035C0000000F03F300000000000F0430000E03F4A
:1035D00030380A2801D201207047002070470000CF
:1035E0002DE9FF4F95B09A46884606460025EEE144
:1035F000252877D100242746F94A0121039400E0C9
:10360000044316F8013F203B01FA03F01042F7D1C2
:1036100030782A2811D06FF02F033078A0F13002D3
:10362000092A16D8039A44F0020402EB820203EB43
:1036300042021044761C0390EFE758F8042B0392E3
:10364000002A03DA504244F40054039044F0020488
:10365000761C30782E2816D116F8010F44F0040499
:103660002A280DD06FF02F023078A0F13003092BFB
:1036700009D807EB870302EB4303C718761CF3E76F
:1036800058F8047B761C30786C280FD006DC4C2868
:1036900017D068280DD06A2814D104E0742810D0FF
:1036A0007A280FD10DE044F400140AE044F48014A9
:1036B00001E044F440147278824202D104F580148F
:1036C000761C761C307866280BD013DC582877D00F
:1036D00009DC002875D04528F6D04628F4D04728C4
:1036E0001AD193E118E0632835D0642879D0652891
:1036F00012D18BE1702873D008DC6728F1D06928DB
:103700006FD06E280DD06F2806D1ACE073282CD076
:10371000752874D0782853D05246179990476D1C5D
:1037200054E1C4F30250022809D003280DD0D8F880
:10373000001004280DD00D6008F1040846E1D8F807
:103740000010EA17C1E90052F6E7D8F800100D8022
:10375000F2E70D70F0E718F8041B8DF80010002058
:103760008DF80100EB46012003E058F804BB4FF050
:10377000FF3061074FF0000102D40DE009F10101B3
:103780008946B9420FDA8145F8DB1BF80910002998
:10379000F4D108E009F1010189468142FADB1BF806
:1037A00009100029F6D103985346A0EB09072146DA
:1037B0003846179A00F080FA284400EB090507E024
:1037C00044E008E10DE01BF8010B524617999047C1
:1037D000B9F10109F7D2534621463846179AF2E06B
:1037E00039E00A21C4F302524FF0000B0091022A83
:1037F00006D058F8040BC117032A09D00AE023E0C9
:1038000008F1070020F00702F2E80201904605E007
:1038100000B2C117042A01D140B2C117002906DA4B
:103820000A460021404261EB02012D2202E02205FE
:1038300004D52B228DF80420012203E0E20701D0F9
:103840002022F7E7914657E00A2100E010214FF0CF
:10385000000B00910BE010214FF0000B44F004042A
:103860000827009103E008204FF0000B0090C4F3FC
:103870000252022A05D058F8040B0021032A08D06E
:1038800008E008F1070020F00702F2E80201904684
:1038900003E080B2042A00D1C0B24FF00009220731
:1038A0002AD53278702A07D0DDF800C08CF0100CD1
:1038B0005CEA0B0C05D00EE040228DF804200122BA
:1038C00008E050EA010306D030238DF804308DF86B
:1038D000052002229146009B83F0080353EA0B0364
:1038E0000AD150EA010201D1620705D530228DF8D4
:1038F00004204FF001097F1E3278582A04D039A2E3
:103900000C920CAA02920BE03BA2F9E75B46009AEC
:10391000FCF77CFF0C9B9B5C029A521E0292137078
:1039200050EA0102F2D1029804A9081A00F1200B12
:10393000600702D524F4803400E001275F4502DDF2
:10394000A7EB0B0000E0002000EB0B0100900398B8
:103950004944401A0390E00306D453462146179A7F
:10396000039800F0A9F90544002706E001A8524693
:10397000C05D179990476D1C7F1C4F45F6DBE00337
:103980000CD553462146179A039800F095F9054443
:1039900004E030205246179990476D1C0099481E4C
:1039A00000900029F5DC08E0029802995246007860
:1039B000491C0291179990476D1CBBF10001ABF1B6
:1039C000010BF1DC5BE100F065F90544761C307811
:1039D00000287FF40DAE19B02846BDE8F08F000036
:1039E00009280100303132333435363738396162D5
:1039F0006364656600000000303132333435363799
:103A0000383941424344454600000000600700D475
:103A1000062708F1070020F00700F0E8022380469F
:103A200003F0004C5FEA0C0001D097A009E02005EC
:103A300001D596A005E0E00701D095A001E0AFF226
:103A40004C001390307823F0004365280CD006DC3E
:103A5000452809D046281DD047287FD13BE066285D
:103A600018D067287AD136E00021112F01DB112010
:103A700000E0781CCDE9000104A90CA8FFF7E6FCE2
:103A8000DDE90D010C9A4FF0000B07F101091092CE
:103A900000914EE04FF000400097CDE9011004A9DD
:103AA0000CA8FFF7D3FCDDE90D020C9B0F994FF03A
:103AB000000B91461093009211B9791C00EB01099B
:103AC000B7EB090003D4C0F1FF3B07F10109A9EBF3
:103AD0000700019042E0012F00DA01270021112F99
:103AE00001DD112000E03846CDE9000104A90CA851
:103AF000FFF7ACFCDDE90D010C9A00914FF0000BD3
:103B0000B946109221070FD4009A4A4503DA91462C
:103B100001E0A9F10109B9F1010F05DD109AA9F140
:103B20000101515C3029F4D0B84202DA10F1040FDF
:103B300003DA0121CDE9011010E0002803DC834401
:103B4000A9EB000102E0411C494500DD8946A0EBDC
:103B50000B00401C01904FF000400290200705D45C
:103B60000198484502DB4FF0FF30019000208DF8AE
:103B70004B0002980DF14B07B0F1004F25D0022009
:103B80000C902B200D90029800280CDA40420290F5
:103B90002D200D9007E00A210298FCF721FE30311C
:103BA000029007F8011D0C99481E0C900029F2DCC8
:103BB00002980028EFD1791E0D980870307800F037
:103BC000200040F0450007F8020D11A8C01BC01DE1
:103BD00002901398007800B1012000EB09010198D0
:103BE00001EBE071029801440398401A401E0390D3
:103BF000E00306D453462146179A039800F05CF878
:103C000005441398007818B15246179990476D1CD7
:103C1000E00323D553462146179A039800F04CF849
:103C200005441BE0BBF1000F07DB0098584504DD9D
:103C30001098179910F80B0001E0179930205246A0
:103C4000904701980BF1010B401E05F10105019011
:103C500004D12E205246179990476D1CB9F10001EE
:103C6000A9F10109DEDC05E017F8010B52461799AE
:103C700090476D1C0299481E02900029F4DC5346BF
:103C80002146179A03989EE62D0000002B000000A5
:103C9000200000002DE9F041044600251E4617468D
:103CA000880404D405E039462020B0476D1C641E0A
:103CB000F9D52846BDE8F0812DE9F04104460025FC
:103CC0001E469046C80301D5302700E0202788040F
:103CD00004D505E041463846B0476D1C641EF9D551
:103CE0002846BDE8F0810A68531C0B6010707047CD
:103CF00030B583B00446FFF78DFB05460020CDE9C3
:103D00000000024621466846FCF7EDFD2846FFF715
:103D100097FBDDE9000103B030BD00001FB5FDF7E2
:103D2000D9FAFEF7B5FFFEF73BFDFEF705FEB048FA
:103D3000AE49002701604FF4E131C0E901170C21C1
:103D4000C760C0E904718761C761FEF71BFC08B159
:103D500072B6FEE7FEF7BAFDFEF742FE0122A54D60
:103D6000940321462846FDF7A2FA6420FDF74CF99A
:103D7000002221462846FDF79AFA0024DFF878A2AF
:103D8000DFF878B29E4E00F057FBFCF7CDFC5246B0
:103D90005B46FCF7FBFBFCF7F3FC641CE4B2F06051
:103DA000052CF0D39248D838FDF780FE94490122C3
:103DB000C91D8F48FEF758FC8D4800214838FDF793
:103DC000F1FF8B4804214838FDF7ECFF88480821B3
:103DD0004838FDF7E7FF012220212846FDF767FA62
:103DE000012208212846FDF762FA81480021903817
:103DF000FEF7C0F97E4804219038FEF7BBF97C4CF1
:103E00009F20903C2168886300F016FB7D490144A7
:103E1000B1F1907F08D2FCF787FC52465B46FCF775
:103E2000B5FBFCF7ADFCF0607748F16801447748DA
:103E3000814205D3012204217548FDF738FAB77095
:103E4000707820B16A48763000F048FB777008211E
:103E50002846FDF727FA00287CD13079E0B300200E
:103E6000B17808424BD0DFF888C10CF1940C9CF873
:103E70000000DCF8043060F30702DCF80810DCF81E
:103E80000C80DCF81090DCF814C08DE80213316A65
:103E9000F06800F063F9F061009006F12400F36827
:103EA00007C8FEF703FEB061009006F130007369A9
:103EB00007C8FEF78BFE3081002810DB4FF400614D
:103EC0002846FDF7EFF9D0B1012220212846FDF761
:103ED000EEF9B6F9080010E0FFE70120C0E74FF463
:103EE00080612846FDF7DEF948B1002220212846EE
:103EF000FDF7DDF9B6F90800404221684863F07823
:103F000040B3B069009006F13000736907C8FEF74E
:103F10005DFE308100280DDB4FF400612846FDF77F
:103F2000C1F9B8B1012220212846FDF7C0F9B6F940
:103F300008000DE04FF480612846FDF7B3F948B161
:103F4000002220212846FDF7B2F9B6F908004042C8
:103F5000216848634FF4806841462846FDF7A2F97E
:103F600050B94FF400612846FDF79CF920B90122B1
:103F700008212846FDF79BF941462846FDF792F9AE
:103F800058B920212846FDF78DF908B92068476304
:103F9000012220212846FDF78AF94FF400612846C6
:103FA000FDF780F900287FF42FAF307908B9B07899
:103FB00048B1B07800283FF427AF01203071216864
:103FC0009620486320E720212846FDF76BF908B1C9
:103FD00020684763012204210D48FDF768F900229B
:103FE00020212846FDF763F90EE700000038014064
:103FF00044010020000C0140F168E388B5F8443F1B
:104000001C000020CCCCCCC0008076BB01C0C4001A
:1040100000080140F0B593B0054608788DF800001F
:10402000019208780C46612809D0622807D0002642
:10403000632816D0642814D065283AD086E0002082
:1040400006A904E0221852780A54401CC0B2225C2F
:10405000002AF7D10846FFF74BFEFCF791FB0290D0
:1040600074E000272C212046FCF792F8024606A9AE
:1040700002E0C8557F1CFFB2E01940782C28F8D127
:10408000CE55002009AB02E01954401CC0B21118F3
:1040900049780029F8D11E5406A8FFF729FEFCF73D
:1040A0006FFB029009A8FFF723FEFCF769FB039062
:1040B0004CE0002006AA02E01154401CC0B22118B6
:1040C00049782C29F8D11654801CC0B2002109ABC4
:1040D00004E05A54491C401CC9B2C0B2225C2C2ACC
:1040E000F7D15E54401CC0B200210CAB04E05A541E
:1040F000491C401CC9B2C0B2225C2C2AF7D15E54C4
:10410000401CC1B200200FAB04E01A54401C491CF3
:10411000C0B2C9B2625C002AF7D11E5406A8FFF7EC
:10412000E7FDFCF72DFB029009A8FFF7E1FDFCF786
:1041300027FB03900CA8FFF7DBFDFCF721FB0490A5
:104140000FA8FFF7D5FDFCF71BFB05901822694669
:104150002846FBF7F9FF13B0F0BD00002DE9F04F42
:1041600089B0884612A91D4691E8D002D1B26129D2
:104170000CD0DFF8A0A262290ED0632919D0DFF895
:1041800098B2642936D065297DD039E12046FCF704
:10419000CBFAA24AA24BCAE0FDF78EF8A0EB0800CA
:1041A000FCF783FA2146FCF75CF85146FCF78BF8E4
:1041B0001EE0FDF781F8A0EB0800FCF77BFA07464C
:1041C00088463046FCF7B0FA02460B4695489649B9
:1041D000FCF7DCF943463A46FCF766F90022934BBC
:1041E000FCF7D4F9FCF7CCFA00F04CFA2146D3E006
:1041F0002946DEE030465146FCF733F80746FDF726
:104200005BF8A0EB0800FCF750FA3946FCF75BF8C6
:10421000FCF776FA80B2FCF748FA3146FCF721F851
:104220005146FCF71EF80746FDF746F8A0EB0800DC
:10423000FCF73BFA3946FCF70EF85146FCF743F819
:1042400008903046FCF770FA6FF001094A46CDE954
:104250000001FCF70AFACDE90201074688460898F2
:10426000FCF762FA82463A4643460791FCF770FA39
:104270000AD830464946FCF764F801462046FCF768
:1042800022F8089988E057E0DDE9000100225B464A
:10429000FCF70AF98846074643463A4650460799CE
:1042A000FCF756FA23D8DDE902210B465046079960
:1042B000FCF7F4F80746884630464946FCF741F8D3
:1042C00001462046FBF7FFFFFCF72EFA43463A462D
:1042D000FCF7EAF806460F4621462846FBF769FF39
:1042E000FCF722FA32463B46FCF7D8F821E03A4682
:1042F000434650460799FCF7D1F8074688463046B2
:104300004946FCF71EF801462046FBF7DCFFFCF7A8
:104310000BFA3A464346FCF7C7F806460F462146D5
:104320002846FBF798FFFCF7FFF932463B46FCF7BF
:1043300014F8FCF725FA63E030465146FBF791FF8D
:104340008346FCF7B9FFA0EB0800FCF7AEF959462D
:10435000FBF7B9FFFCF7D4F980B2FCF7A6F93146B8
:10436000FBF77FFF5146FBF77CFF0646FCF7A4FFF7
:10437000A0EB0800FCF799F93146FBF76CFF5146BA
:10438000FBF7A1FF06463946FCF716FA07D2394675
:104390002046FBF798FF3146FBF763FF28E74946C5
:1043A0003846FBF706FF3146FCF710FA04D22146E7
:1043B0002846FBF7FEFE23E038460121FBF7C1FF4C
:1043C0004946FBF7F6FE3146FCF700FA17D23946AC
:1043D0003046FBF740FF4946FBF73DFF06463946AE
:1043E0002046FBF770FF3146FBF73BFF06462146B0
:1043F0002846FBF7DEFE3146FBF72DFF00E028469E
:104400000B49884202DC0B49884200DA084609B0B1
:10441000BDE8F08F00007A440000E83FCDCCCCCC62
:10442000CC4A94404AD8124DFB21194000408F409D
:1044300000404E45008089442DE9F8430025FCF7F3
:104440003BFF244E04464FF480480022414630464C
:10445000FCF72DFF0A20FCF7D7FD4FF40047394643
:104460003046FCF71FFF012804D1FCF725FF001B95
:104470005028F4D3FCF720FF001B502821D2032141
:10448000684600F0F1F99DF800009DF80110000465
:1044900040EA01209DF80210084310F4400F10D1AB
:1044A000810204D5C043C0F31500401C4042FCF714
:1044B000F3F80949FBF7D5FE6FF01401FBF741FF54
:1044C0000546012241463046FCF7F1FE2846BDE88C
:1044D000F8830000000C01400000A0402DE9F04FDF
:1044E0008FB000216A4604E043185B785354491C9E
:1044F000C9B2435C002BF7D10078554EDFF85481E8
:10450000DFF85491DFF854B10025554F554C4FF06A
:10451000010A66284ED00BDC61281ED0622874D0B8
:1045200063286FD0652815D10022082138468CE019
:10453000672878D06F2867D073280BD1A570A56144
:10454000E5702571012208213846FCF7B0FE464887
:10455000006845630FB0BDE8F08FFCF7ADFE206248
:10456000002208213846FCF7A2FE694608A8E26846
:10457000FFF750FD3D489DF82010017009994160FA
:104580000A9981600B99C1600C9901610D99416193
:104590003748056037480560FCF78EFE36490860ED
:1045A0003560C8F80050FCF787FEC9F8000084F8B1
:1045B00002A047E0A5701046FFF79AFBFCF7E0F871
:1045C000A06120213846FCF76DFE0028A06902D1C9
:1045D00080F00040A0612949884202DC28498842D5
:1045E00000D9A16184F803A0002208213846FCF715
:1045F0005EFE3560C8F80050FCF75EFEC9F80000AA
:10460000A8E702E01DE00EE018E0A57000222021DE
:104610003846FCF74CFEA069B0F5000F9ADB80F03D
:104620000040A06196E7A570012220213846FCF7E2
:104630003EFEA06910F1FF4FF1D28BE7A570012279
:1046400001E0A570002204215846FCF730FE81E706
:1046500010000020140000200C0000200008014081
:10466000000C01401C000020B4000020D8010020F4
:104670000400002008000020000000200000C844C2
:104680000000C8C42DE9F843044602465248694672
:10469000B0EB420F09D94FF0E640B0EB420F94BFA8
:1046A00000204FF0FF30009030E04C4B22F00040F3
:1046B000834271D94A492046FBF7D3FDFCF77DF9C7
:1046C0008046FCF704F800F003000090454940469E
:1046D000FBF7C7FD054644494046FBF7C2FD0646C9
:1046E00042494046FBF7BDFD074641494046FBF7BE
:1046F000B8FD2146FBF7B2FD3946FBF7ACFD31466C
:10470000FBF7A9FD2946FBF7A6FD04462546009CBC
:10471000002C45DB294614F0010F08461ED0FBF79C
:10472000A0FD05463349FBF79CFD3349FBF741FDEE
:104730002946FBF796FD3149FBF73BFD2946FBF780
:1047400090FD4FF07E51FBF734FD14F0020F08BFCF
:10475000BDE8F88380F00040BDE8F883FBF781FDF9
:1047600006462749FBF77DFD2649FBF777FD3146D5
:10477000FBF777FD2449FBF71CFD3146FBF771FD84
:104780002946FBF76EFD2946FBF713FD14F0020FD7
:10479000E0D1BDE8F883FFE71046FEF787FDB4E7F8
:1047A0006800B0F17F4F09D22846FEF74FFD04287C
:1047B00008BFFEF775FD2846BDE8F88306D1012045
:1047C000FEF73EFEBDE8F843FEF766BD2846BDE8AD
:1047D000F843FEF75EBD0000B61F927E490E4946C3
:1047E00083F9223F1A61342C0020A23300A0FD3946
:1047F0000000C93FB93AB2BACA9F2A3DDDFFFFBEE9
:10480000336D4C39DA82083CA0AA2ABE2DE9F04764
:104810000024DFF84C90134F25464FF400484FF426
:104820008076002231463846FCF741FD6006040ED2
:1048300041464846FCF736FD10B144F0010403E060
:10484000401CC0B20A28FBD3012231463846FCF78F
:104850002EFD6D1CEDB2082DE3D32046BDE8F08798
:10486000000C01400008014070B50D4606460024CA
:1048700004E0FFF7CBFF3055641CE4B2AC42F8D340
:1048800070BD0000000000000000010203040607E4
:1048900008090000000001020304000000000000FD
:1048A0006E83F9A22915444ED15727FCC0DD34F59B
:1048B000999562DB4190433CAB6351FE0040404020
:1048C00040404040404041414141414040404040E3
:1048D000404040404040404040404040400502028F
:1048E000020202020202020202020202022020204E
:1048F00020202020202020020202020202029090AA
:1049000090909090101010101010101010101010A7
:1049100010101010101010100202020202028888FB
:104920008888888808080808080808080808080807
:1049300008080808080808080202020240000000EF
:10494000BD48000864490008000000206C00000019
:1049500020340008D04900086C00002084050000C5
:1049600030340008000000000000000000000000DB
:104970000000000000000000000000000000A04255
:104980000000000000000000000000006656A24485
:104990000000000000000000000000000000000017
:1049A000000000000000A041000020410000003F86
:1049B0008FC2F53D0000803F0000000001000000B4
:1049C00010000000000000000024F40000000000BF
:04000005080000ED02
:00000001FF
